:020000040800F2
:1000000070080020450100084D0100084F0100085C
:1000100051010008530100085501000800000000CC
:100020000000000000000000000000005701000870
:1000300059010008000000005B0100088529000844
:100040005F0100085F0100085F0100085F01000810
:100050005F0100085F01000893040008990400088C
:100060009F040008A5040008AB0400085D04000814
:100070005F0100085F0100085F0100085F010008E0
:100080005F0100085F0100085F0100085F010008D0
:10009000252E00085F0100085F010008B104000878
:1000A0005F0100085D2A00085F0100085F01000889
:1000B000692A0008752A00085F0100085F0100082E
:1000C0005F0100085F0100085F0100085F01000890
:1000D0005F0100080D2E0008192E00085F010008BE
:1000E0005F0100085F0100085F0100085F01000870
:1000F0005F0100085F0100085F0100085F01000860
:100100005F0100085F0100085F0100085F0100084F
:100110005F0100085F0100085F0100085F0100083F
:100120005F0100085F0100085F0100085F0100082F
:10013000DFF80CD000F054F800480047C530000844
:10014000700800200648804706480047FEE7FEE7A3
:10015000FEE7FEE7FEE7FEE7FEE7FEE7FEE7FEE777
:10016000152A000831010008202A04DB203A21FA70
:1001700002F00021704721FA02F3D040C2F12002C0
:100180009140084319467047D2B201E000F8012BB4
:10019000491EFBD270470022F6E710B513460A4607
:1001A00004461946FFF7F0FF204610BDC1F30A527E
:1001B00010B5C1F3130140F2FF3341F480119A42AC
:1001C00001DA002010BD40F233439A42A2F23342DA
:1001D00003DC5242FFF7C8FF10BD904010BD000085
:1001E000064C074D06E0E06840F0010394E8070084
:1001F00098471034AC42F6D3FFF79EFFFC3B000853
:100200001C3C000870B5044600688168C943C907F2
:100210001CD1816821F00101816001F023FA0546BB
:100220000FE000BF01F01EFA401B022809D9A06AA6
:1002300040F01000A062E06A40F00100E06201209E
:1002400070BD20688068C043C007EBD0002070BD3F
:1002500010B50146406A826A12F0500F05D0006A5C
:10026000026BBDE8104008461047816A41F40071F6
:10027000816201688968C1F3424107290CD1C168D4
:1002800051B9816A21F480718162816AC90403D401
:10029000816A41F00101816200F0F0F910BD10B5F2
:1002A000406A816A41F040018162C16A41F0040103
:1002B000C16200F05CFA10BD10B5406A00F056FA59
:1002C00010BD0000F8B5002604460096006881685D
:1002D000C943C90728D0816841F0010181601348F2
:1002E00013490068B0FBF1F000E0401E00900028C8
:1002F000FBD101F0B7F9054611E000BF01F0B2F9FA
:10030000401B02280BD9A06A40F01000A062E06AEE
:1003100040F00100E06284F824600120F8BD20680C
:100320008068C043C007E9D10020F8BD0400002068
:1003300040420F0010B5002958D0826B4FF4D8739B
:10034000046803EB0113E45814F004049460046897
:10035000E4584DD0E40854600468E35803F0020305
:10036000D3604FF4DA73046803EB0113E45804F02C
:100370000F04146111620468E358C3F30723D361C7
:100380004FF4DC73046803EB0113E458147504683C
:10039000E458240A54750468E458240C94750468DD
:1003A000E3581B0ED3754FF4DE73046803EB01139F
:1003B000E45814760468E458240A54760468E4582F
:1003C000240C94760468E3581B0ED376036820222D
:1003D00089B11A610268536923F05003536190F8A0
:1003E0003C20222A0DD0322A0BD00FE0426BA5E729
:1003F000640D1460B0E7DA600268536923F00A0301
:10040000ECE70268536923F40F435361122201237E
:10041000002990F83C1006D0522915D0622916D038
:10042000722906D115E042290ED0622908D072291E
:1004300008D080F83C3000BF00F0B6FD002010BDB1
:10044000322107E0522105E080F83C20F4E7222128
:1004500000E0422180F83C10EEE70000014800F087
:1004600053BE00006C03002030B590F840500124CA
:10047000AC40C56B6C60046863604368102B036814
:1004800003D099600068C26030BD9A600068C160A6
:1004900030BD012000F0D8BF022000F0D5BF0420FD
:1004A00000F0D2BF082000F0CFBF102000F0CCBF7A
:1004B000202000F0C9BF0000F8B5002504460095D3
:1004C00090F82400012808D0012084F82400204658
:1004D000FFF798FE060002D04BE00220F8BDA06AAC
:1004E00020F4885040F00200A062022001F06EF972
:1004F00022490968B1FBF0F0400000E0401E009086
:100500000028FBD12046FFF7DDFE2068816841F01E
:100510000801816001F0A6F8074604E001F0A2F8A6
:10052000C01B0A2811D8206880680007F6D420680C
:10053000816841F00401816001F094F807460EE003
:1005400001F090F8C01B0A2809D9A06A20F0020027
:1005500040F01000A06284F824500120F8BD20680B
:1005600080684007ECD4A06A20F0020040F001004F
:10057000A06284F824503046F8BD0000040000203A
:10058000F8B50024009490F824202546012A12D0C2
:10059000012280F824204A681F23072A0DD206680A
:1005A000776B521E02EB820293409F430B6893408D
:1005B0001F43776319E00220F8BD06680D2A0AD2AE
:1005C000376BD21F02EB820293409F430B6893402C
:1005D0001F43376309E0F76A0D3A02EB820293404A
:1005E0009F430B6893401F43F7620A68072306681E
:1005F0000A2A0AD3F7680A3A02EB420293409F4361
:100600008B6893401F43F76008E0376902EB4202B2
:1006100093409F438B6893401F4337610A68102AB9
:1006200001D0112A20D1124B02689A4217D1936847
:100630001B0219D4936843F40003936009681029DE
:1006400012D10C490C4A0968B1FBF2F101EB8101AE
:10065000490000E0491E00910029FBD104E0816AB5
:1006600041F020018162012480F824502046F8BD29
:10067000002401400400002040420F002DE9F04119
:100680000024364D2046052605F14603002211467A
:10069000C1EBC10705EB470737F81070491C3A4416
:1006A0000529F5DBB2FBF6F123F81010401C0728F2
:1006B000ECDB2A4D00204FF47A72103D33F8101015
:1006C000914202D245F8202005E055F8201011B1E2
:1006D000491E45F82010401C0428EFDB5FF00000A5
:1006E00055F8201009B1641CA4B2401C0428F7DBA3
:1006F0001B4E28684FF4804108B1002200E001221F
:10070000304600F0AAFF68684FF4005108B100229B
:1007100000E00122304600F0A0FF124EA86808B1A8
:10072000002200E001222021304600F096FFE86818
:1007300008B1002200E001221021304600F08DFFB8
:1007400009484470002002F049FF012002F046FFF2
:10075000BDE8F041022002F041BF00008C00002003
:10076000001001400018014013000020704770473E
:100770002DE9F04104004FF0000514D0A06A0026D6
:1007800028B9E66284F82460204600F083F8204609
:10079000FFF738FDA16A01F01001014304D0A06AFF
:1007A00040F01000A0626BE0A16A21F4885141F092
:1007B0000201A162334923688B42E16904D1B1F59A
:1007C000402F01D14FF40021E7684FF4807C41EACB
:1007D000470261680A43A168614509D0012907D031
:1007E0005FF00001D4F814E0BEF1010F02D00AE07E
:1007F0006146F7E7C7B1A76A47F02007A762E76A33
:1008000047F00107E7625F6827F469470F435F60BD
:10081000236899681C4F394011439960A16861456C
:100820000BD0012909D00CE0DFF860E0A7690EEBDE
:1008300047370F4347F40061E5E7218A0D05A5F529
:1008400080152168CB6A23F470032B43CB622168A7
:1008500089680F4B1940914208D1E662A16A21F0E4
:10086000020141F00101A162BDE8F081A06A20F01F
:10087000020040F01000A062E06A40F00100E06277
:100880000120F1E7003C0140FDF7E1FF00E0FFFF40
:10089000FE0E1FFF30B505460068184985B0884236
:1008A00029D11748816941F40071816180696946E5
:1008B00000F400700490FB20009003200190114888
:1008C00000F0CEFD114C10488021206000206060B7
:1008D000C4E9020149002161890061612021C4E964
:1008E0000610204600F034FD18B17C2108A002F06B
:1008F0009FFA2C62656205B030BD00000024014003
:100900000010024000080140080002406C03002073
:100910002E2E2F5372632F73746D333266317878B5
:100920005F68616C5F6D73702E6300002DE9F047A6
:10093000894604463B4900683B4F0E1D904688425D
:1009400001D0B84207D1306810F4702F03D00125D0
:100950002846BDE8F08794F8240001280CD0012037
:1009600084F824002046FFF7ADFC05004FF000009E
:1009700004D084F82400EBE70220EAE7A16A40F6FD
:100980000162914341F48071A1622168B94218D19A
:10099000326812F4702F14D0A16A41F48011A16260
:1009A0003168490505D5A16A21F4005141F480510F
:1009B000A162A16AC9040AD5E16A21F00601E162D7
:1009C00006E0A26A22F48012A2624968E9E7E062C6
:1009D00084F82400216A15488862216A1448C86294
:1009E000216A1448086321686FF0020008602068DB
:1009F000816841F480718160216843464A464C31E8
:100A0000206A00F0E7FC20688168C1F342410729B1
:100A1000816803D041F48011816099E741F4A0011D
:100A2000FAE70000002401400028014051020008BC
:100A3000B90200089F020008F0B50C7D012303FAFB
:100A400004F20468D4F800524E6A25F47C5503EB96
:100A500006231D43C4F800520368D3F81C42944394
:100A6000C3F81C424FF41073CD691C1DBDB9056855
:100A7000D5F80C629643C5F80C628E894D684F69B3
:100A800066F31F45066803EBC707F5510E890D682D
:100A90004F6966F31F45066804EBC707F551CD693A
:100AA000012D17D10568D5F80C621643C5F80C6204
:100AB0000E884D684F6966F31F45066803EBC70350
:100AC000F5500D89CB684E6965F31F43056804EB4B
:100AD000C6042B518B69002B0368D3F8044211D054
:100AE00054EA0204C3F804420B69002B0368D3F8EC
:100AF000144209D054EA0204C3F81442096A0129D5
:100B000004D009E09443EDE79443F5E70168D1F898
:100B10001C321343C1F81C320068D0F8001221F0D7
:100B20000101C0F800120020F0BD70472DE9F0412E
:100B3000044600680026C168C1F300134169C1F38F
:100B4000C002102113B10AB14E01C16020680269D0
:100B50004369C2F30012C3F380131AB113B146F410
:100B600080660161216848694FF00105C043C007F4
:100B70004ED18A687648904323D000208B68754A0E
:100B80009A4320D000228F68734BBB431DD00023B3
:100B9000104318433CD088688A68C0F340008B68D3
:100BA000C2F3402203F001031043184329D04A69DD
:100BB000204622F001024A6194F83C10122906D026
:100BC0000AE00120DAE70122DDE70123E0E701681E
:100BD0004A6922F40F424A6190F83C10422908D039
:100BE000522908D0722908D080F83C5000F0F2F960
:100BF00009E0222102E0322100E0622180F83C106D
:100C0000F4E746F4006620688168544A1143816025
:100C10002168C868496910F0030FC1F3400104D08E
:100C200019B100212046FFF785FB21680869496951
:100C300010F0030FC1F3001104D019B101212046B7
:100C4000FFF778FB206C304320642068816942699B
:100C500011F0010F4369C2F30022C3F3C03305D082
:100C600022B11BB1216C41F0010121648169C1F302
:100C700040034169C1F340224169C1F3C0312BB146
:100C800022B119B1216C41F0020121648169C1F3E3
:100C9000800341694269C1F38021C2F3C0322BB1A4
:100CA00021B11AB1216C41F004012164816911F074
:100CB000700F08D000224169C1F3C0234169C1F31C
:100CC000C03112B121E00122F5E7F3B1E9B1816948
:100CD00001F0700140292FD006DC102909D020290D
:100CE0000BD030290DD123E0502929D0602908D11B
:100CF0002AE0216C41F0080102E0216C41F0100172
:100D00002164816921F070018161206C00280DD07F
:100D100021680420486084F83C502068416948F606
:100D20005B72914341612046FFF7FFFEBDE8F08111
:100D3000216C41F02001E3E7216C41F04001DFE745
:100D4000216C41F08001DBE7216C41F48071D7E731
:100D50000100000400010008000001100905010065
:100D60002DE9F04104004FF0000504D094F83C0058
:100D7000002618B107E00120BDE8F08184F83D604D
:100D8000204600F083F8022084F83C0020680168C7
:100D900021F0020101602068016841F00101016059
:100DA00000F060FC07464FF0030804E000F05AFC36
:100DB000C01B0A2853D820684068C007F6D02168B5
:100DC0004868C00758D0A069012801D145F08005C6
:100DD000E06901282FD025F04000226A012A2DD099
:100DE00020F02000626A012A2BD020F01000A26AB5
:100DF000012A29D020F00800E26A012A27D020F039
:100E000004000A6822F0FC0202430A60D4E90201ED
:100E10000843D4E90412114308436168491E08439A
:100E20002168C8612068016821F00101016000F0BB
:100E300019FC054618E045F04000CEE740F02000E0
:100E4000D0E740F01000D2E740F00800D4E740F0CF
:100E50000400D6E700F006FC401B0A2804D904F879
:100E60003C8F0320667087E720684068C007F1D197
:100E700020684068C00703D0042084F83C007AE76B
:100E80002664012084F83C00002075E710B5006856
:100E9000154986B0884225D11448C16941F00071D6
:100EA000C161C069124C00F0007004904FF4006002
:100EB00000900020019002906946204600F0D0FA90
:100EC000A014009002200190032003906946204660
:100ED00000F0C6FA00220221142000F045FC142084
:100EE00000F036FC06B010BD006400400010024067
:100EF0000008014030B511B1012925D010E090F86B
:100F00003C20222A28D090F83C20422A24D000BF3E
:100F100090F83C20622A1FD090F83C20722A1BD007
:100F200090F83D20012A17D0012280F83D2062224E
:100F300090F83C40722389B1122C19D0222C18D081
:100F4000422C19D0322214E090F83C20322A03D0EF
:100F500090F83C20522ADBD1022030BD122C05D063
:100F6000322C06D0522C07D0222202E0422200E08E
:100F7000522280F83C2001E080F83C3000220264DC
:100F800003685C6948F601752C435C6180F83D207C
:100F900000680029416904D041F0500141610020FE
:100FA00030BD41F00A01F9E710B50446406B006816
:100FB000B0F5807F01D101F04BFF0548016841F099
:100FC000020101602046BDE810400021FFF792BFFA
:100FD00014640040704700002DE9F05F90F8211084
:100FE0000024022903D004218163012485E00168E3
:100FF0000A6822F00E020A6001680A6822F0010203
:101000000A603F4E3E4FB215DFF8F4C0DFF8F090B3
:10101000DFF8ECA0DFF8E8B0DFF8E4E00168783F43
:1010200013011502ACF1640CA9F15009AAF13C0AB4
:10103000ABF1280BAEF1140E4FF48018B14227D952
:10104000B9420ED0614512D049451DD0514518D046
:10105000594518D0714501D1424615E0294EB1429B
:1010600001D1012210E0274E1436B14201D11022E5
:101070000AE0244E2836B14206D0224A3C32914240
:1010800001D11A4600E02A461E49091F0A602BE0DA
:10109000B94213D0614517D0494522D051451DD0E2
:1010A00059451DD0714501D142461AE0B14202D1E5
:1010B0004FF0807215E0134EB14201D1012210E0D1
:1010C000104E1436B14201D110220AE00D4E2836DE
:1010D000B14206D00B4A3C32914201D11A4600E09F
:1010E0002A46074980394A60012180F821100021F1
:1010F00080F82010416B01B188472046BDE8F09F81
:1011000080000240080402402DE9F05FC16B0A68CC
:1011100001680B68046C4FF0040808FA04F8844D69
:10112000844E854FDFF814C2DFF81492DFF814A262
:10113000DFF814B2DFF814E218EA020F65D05FEAB4
:10114000437862D50A68920603D40A6822F0040242
:101150000A60DFF8F0814FF48062016808F114083A
:1011600013011402414524D9A9420DD0B1420FD038
:10117000B9421AD0614515D0494515D0514501D124
:10118000120312E0594501D104220EE0714501D14C
:1011900040220AE06D4D1435A94206D06B4A283230
:1011A000914201D11A4600E022466749091F0A60B0
:1011B00029E0A94213D0B14215D0B94220D06145EF
:1011C0001BD049451BD0514502D14FF4800217E096
:1011D000414502D14FF0806212E0594501D104220D
:1011E0000EE0714501D140220AE0584D1435A94264
:1011F00006D0564A2832914201D11A4600E02246D2
:101200004B4908394A60C16A71E04FF0020808FA98
:1012100004F818EA020F70D05FEA83786DD50A6887
:10122000920606D40A6822F00A020A60012180F8B8
:101230002110DFF810814FF40072016808F11408E2
:1012400013011402414524D9A9420DD0B1420FD057
:10125000B9421AD0614515D0494515D0514501D143
:10126000120312E0594501D102220EE0714501D16D
:1012700020220AE0354D1435A94206D0334A2832DF
:10128000914201D11A4600E022462F49091F0A6007
:1012900029E0A94213D0B14215D0B94220D061450E
:1012A0001BD049451BD0514502D14FF4001217E025
:1012B000414502D14FF0007212E0594501D102229E
:1012C0000EE0714501D120220AE0204D1435A942DB
:1012D00006D01E4A2832914201D11A4600E0224629
:1012E000134908394A60002180F82010816A0029DA
:1012F0001CD0BDE8F05F0847FFE70825A540154270
:1013000014D01A0712D50A6822F00E020A6090F86B
:101310004020C36B012101FA02F25A60816380F818
:101320002110002180F82010016BE0E7BDE8F09F5C
:10133000080002401C00024030000240440002400D
:10134000580002406C000240080402401C040240A5
:1013500030B560B11C4A03681421934209D21B4A7C
:101360001A44B2FBF1F18900016419490AE0012035
:1013700030BD154A52421A44B2FBF1F189000164B2
:1013800011490839C163022180F821101A6843F617
:10139000F0718A43F0E901142143D0E902452C435E
:1013A0002143046921434469214384692143114352
:1013B0001960002141628162C162016341630122BF
:1013C00042770177084630BD08040240F8FFFDBFB0
:1013D0000000024070B5044690F820000025012866
:1013E0000CD0012084F8200094F821600020012E08
:1013F00006D084F820000225284670BD022070BD6A
:10140000022684F82160A0632068066826F00106A1
:1014100006602046FFF728F8E06A00282068016887
:1014200002D041F00E0106E021F0040101602068C5
:10143000016841F00A0101602068016841F0010182
:101440000160D9E770470000044910B50A680242FC
:1014500002D00860FFF7F6FF10BD00001404014041
:101460002DE9F84FDFF8B8A100220AF1040B144669
:1014700001274FF00F090BF1040E00BF0B6807FAAC
:1014800004F52B40AB4274D1DFF898C14E68A6EB4F
:101490000C0866452BD00DDC032E34D005DC36B3AA
:1014A000012E19D0022E2FD11BE0112E16D0122E94
:1014B0002AD119E0B8F5881F19D006DCB8F5803FAD
:1014C00015D0B8F5801F1FD111E0B8F5001F0ED060
:1014D000B8F5041F18D10AE0CA6815E0CA68121DE1
:1014E00012E0CA6808320FE0CA680C320CE08A6861
:1014F0002AB1012A4FF0080203D0456104E004221A
:1015000002E0056100E00022FF2B01D8064601E061
:1015100000F104064FEA840501D9A5F12005D6F8AB
:1015200000C009FA05F82CEA080C02FA05F54CEAA5
:10153000050CC6F800C04D68ED006AD53A4DAE699D
:1015400046F00106AE61AD6924F0030605F0010521
:101550000095364D06EB050CDCF80850A6074FEA5F
:10156000167809FA08F6B543314EB04202D100268A
:101570001AE04EE02F4EB04201D1012614E02E4E6B
:10158000B04201D102260FE02C4EB04201D1032619
:101590000AE02B4EB04201D1042605E0294EB042AC
:1015A00001D1052600E0062606FA08F62E43CCF8FF
:1015B00008604D68DAF80060ED03554601D51E431A
:1015C00000E09E432E604D68AD0305D5DBF800605A
:1015D0001E43CBF8006004E0DBF800509D43CBF8DD
:1015E00000504D68DEF80060ED02754601D51E43DF
:1015F00000E09E432E604D68AD0205D5084D0C35C8
:101600002E681E432E6004E0054E0C3635689D435F
:101610003560641C102CFFF431AFBDE8F88F00007A
:1016200000040140000011100010024000000140C1
:1016300000080140000C014000100140001401406E
:1016400000180140001C01408068084000D00120C3
:101650007047C2684A40C26070470AB10161704772
:101660000904FBE701480068704700000000002003
:1016700002480168491C016070470000000000201A
:10168000074810B5016841F010010160032000F027
:101690008BF8052000F006F800F018F8002010BDC7
:1016A0000020024010B5044607484FF47A710068E4
:1016B000B0FBF1F000F0FFFB00222146501E00F0CD
:1016C00053F8002010BD0000040000201E4808B59B
:1016D000816941F001018161806900F001000090A1
:1016E000032000F061F8002211466FF00B0000F0BB
:1016F0003BF8002211466FF00A0000F035F8002296
:1017000011466FF0090000F02FF800221146501F1B
:1017100000F02AF800221146101F00F025F80022E0
:101720001146901E00F020F805210022881F00F0CD
:101730001BF80648416821F0E0614160416841F0D2
:101740000071416008BD000000100240000001402F
:1017500000F01F02012191404009800000F1E020CB
:10176000C0F8001170470000F0B40E4B1B680C4627
:10177000C3F30223C3F10705042D00D90425191D65
:10178000072901D2002300E0DB1E012606FA05F13D
:10179000491E214099409E40761E16403143F0BCC0
:1017A00001F0E0B80CED00E0064900F0070208681F
:1017B0004FF6FF03184040EA0220034A1043086036
:1017C000704700000CED00E00000FA0510B52CA4F5
:1017D00001461DCC86B08DE81D002DA02D4C006863
:1017E0000490002004292FD00BDC01292FD00229DE
:1017F00028D100F08BF96168C1F38131491C49009F
:101800001EE0082920D010291CD161682268D2016D
:1018100018D5C1F38342C9031DF8020009D56168D8
:1018200004AAC1F34041515C1B4AB2FBF1F14843A9
:1018300001E01A4948436168490203D4400003218A
:10184000B0FBF1F006B010BD00F070F9FAE7226AC3
:10185000C2F30121012903D1920701D5C803F1E7A1
:10186000022905D1626A920702D549F64040E9E7AC
:101870000329E7D121688903E4D54FF22440E1E749
:1018800002030405060708090A0B0C0D0E0F1010C1
:10189000010200000010024000127A0000093D0021
:1018A0002DE9F84305460078354CC00754D0E0696F
:1018B0000026C00008D4E06940F08050E061E06993
:1018C000012600F0805000902E480168C90512D40E
:1018D0000168804641F480710160FFF7C3FE07464E
:1018E00005E000BFFFF7BEFEC01B642823D8D8F870
:1018F0000000C005F6D5206A10F4407021D0A988F8
:1019000001F4407181421CD0206A1F49012220F459
:1019100040700A6000220A602062C00711D0FFF701
:10192000A1FE074641F2883808E000BFFFF79AFEA3
:10193000C11B414502D90320BDE8F883206A800716
:10194000F4D5206A696820F44070084320621EB113
:10195000E06920F08050E0612878800705D5606854
:10196000A96820F44040084360602878C00605D587
:101970006068696920F48000084360600020DBE74C
:101980000010024000700040400442422DE9F04740
:10199000DFF83C8105460E46D8F8000000F007004D
:1019A000B0420CD2D8F8001021F007013143C8F83A
:1019B0000010D8F8000000F00700B04263D128788A
:1019C000444C800705D56068A96820F0F000084302
:1019D00060602878C00745D06868012816D0216863
:1019E000022816D0890700294DDA616821F0030129
:1019F00001436160FFF736FE6968074641F28830AF
:101A000001290FD00229814619D027E021688903D6
:101A1000E9E78901E7E700BFFFF724FEC11B49455D
:101A200001D918E081466068C0F381000128F3D134
:101A300018E000BFFFF716FEC11B49450BD86068D0
:101A4000C0F381000228F5D10CE000BFFFF70AFEC9
:101A5000C11B494502D90320BDE8F087606810F03A
:101A60000C0FF3D1D8F80010404601F00701B14245
:101A70000BD9016821F0070131430160006800F0D3
:101A80000700B04201D00120E6E72878400705D5DD
:101A90006068E96820F4E060084360602878000727
:101AA00006D56068296920F4605040EAC100606092
:101AB00000F03CF86168084AC1F30311515CC8406A
:101AC000064908600520FFF7EDFD0020C4E700008F
:101AD0000020024000100240D83B00080400002013
:101AE00001480068704700000400002004480549D0
:101AF00000684968044AC1F30221515CC84070473C
:101B00000400002000100240E83B0008044805499A
:101B100000684968044AC1F3C221515CC84070475B
:101B20000400002000100240E83B000810B512A39A
:101B300085B00FCB8DE80F0013A0144B0068049004
:101B40005A68134802F00C0104290FD008290DD15E
:101B5000C2F38344D2031DF8041009D55A6804ABBC
:101B6000C2F340429A5CB0FBF2F0484305B010BDAE
:101B700008484843FAE7000002030405060708097D
:101B80000A0B0C0D0E0F1010010200000010024095
:101B900000127A0000093D002DE9F84F0446007854
:101BA000B94DC00748D06868C0F38100012807D04C
:101BB0006868C0F38100022809D16868C00306D5AF
:101BC0002868800338D5606800286FD034E06068EA
:101BD000B0F5803F0BD010B1B0F5A02F11D0286820
:101BE00020F480302860286820F4802002E02868F3
:101BF00040F480302860606888B1FFF733FD064606
:101C000009E0286840F480202860F0E7FFF72AFD0B
:101C1000801B642875D828688003F7D50CE0FFF78F
:101C200021FD064605E000BFFFF71CFD801B642870
:101C3000F0D828688003F7D42078944E80074FF0BE
:101C400001094FF000083BD5686810F00C0F07D071
:101C50006868C0F38100022809D16868C00306D40F
:101C60002868800714D5206901281FD110E0206959
:101C7000B0B1C6F80090FFF7F5FC074605E000BFDD
:101C8000FFF7F0FCC01B0228C4D828688007F7D5EE
:101C90002868616920F0F80040EAC10028600FE080
:101CA000C6F80080FFF7DEFC074606E0E9E000BF6B
:101CB000FFF7D8FCC01B022823D828688007F7D478
:101CC000207800072CD57248A169D9B1C0F80090DE
:101CD000FFF7C8FC074604E0FFF7C4FCC01B02285E
:101CE0000FD8686A8007F7D56A484FF4FA51006840
:101CF000B0FBF1F0009000BF0098411E0091FAD2B5
:101D00000EE080E0C0F80080FFF7ACFC074604E07E
:101D1000FFF7A8FCC01B022875D8686A8007F7D4B3
:101D20002078400760D5E8690027C00008D4E8693A
:101D300040F08050E861E869012700F08050009091
:101D400055480168C90513D40168834641F4807180
:101D50000160FFF787FC824606E000BFFFF782FCC8
:101D6000A0EB0A0064284ED8DBF80000C005F5D5CA
:101D7000E06801280AD008B1052813D0286A20F0AD
:101D800001002862286A20F0040002E0286A40F07E
:101D900001002862E06841F2883B98B1FFF762FCDD
:101DA00082460BE0286A40F004002862EEE700BF9C
:101DB000FFF758FCA0EB0A0159455AD8286A80075A
:101DC000F6D50CE0FFF74EFC824605E0FFF74AFC33
:101DD000A0EB0A0159454CD8286A8007F6D41FB1F8
:101DE000E86920F08050E861E06988B36968C1F370
:101DF0008101022945D00228C6F8608004D0FFF78F
:101E000031FC044638E034E0FFF72CFC074604E0E0
:101E1000FFF728FCC01B02282BD828688001F7D4C4
:101E2000206AB0F5803F05D16868A16820F40030D1
:101E300008436860D4E908010843696821F4741113
:101E400008436860C6F86090FFF70CFC044606E0A3
:101E500015E000BFFFF706FC001B022809D8286820
:101E60008001F7D50BE000BFFFF7FCFB001B022849
:101E700002D90320BDE8F88F28688001F4D400203F
:101E8000F8E70120F6E7000000100240000042429F
:101E90008004424204000020007000404FF0E02126
:101EA0000428086903D020F004000861704740F05E
:101EB0000400FAE7704710B5401EB0F1807F01D3EF
:101EC000012010BD4FF0E02460610F21601700F089
:101ED00049FD0020A06107202061002010BD10B541
:101EE000FFF7E8FF10BD7047704730B590F83C2011
:101EF000012A20D0012280F83C20022380F83D30C6
:101F000003685C6824F070045C6003685C680D68BA
:101F10002C435C6003689C6824F080049C60036828
:101F20009C6849680C439C6080F83D20002180F843
:101F30003C10084630BD022030BD10B5040003D06F
:101F400094F83D0010B107E0012010BD002084F896
:101F50003C00204600F00CF8022084F83D00211DD2
:101F6000206800F08DFD012084F83D00002010BDA8
:101F700008B51E4A01681E4891420ED1816941F49C
:101F8000006181618069002200F4006000900121FD
:101F90001920FFF7E9FB192013E0B1F1804F14D0AD
:101FA000144A914220D1C16941F00201C161C06966
:101FB000002200F00200009001211D20FFF7D4FB59
:101FC0001D20BDE80840FFF7C3BBC16941F0010116
:101FD000C161C069002200F00100009001211C20B5
:101FE000FFF7C2FB1C20ECE708BD0000002C0140FD
:101FF00000100240000400400168CA6842F001027B
:10200000CA600068016841F001010160002070476A
:1020100070B5044690F83C00012817D0012584F8DB
:102020003C50022084F83D002068826822F077024C
:1020300022F47F4282600868502837D00DDC2028C7
:1020400059D005DC88B3102841D151E0022070BD81
:10205000302853D040283AD13FE060282ED0702855
:102060000BD0B0F5805F03D0B0F5005F2FD110E04A
:102070002068816821F0070115E0CB68D1E90121D2
:10208000206800F043FD2168886840F07700886090
:102090001DE0CB68D1E90121206800F037FD206800
:1020A000816841F48041816011E01EE0CA6849689E
:1020B000206800F03DFD5021206806E0CA684968AC
:1020C000206800F046FD6021206800F029FD84F8BA
:1020D0003D50002084F83C0070BDCA684968206803
:1020E00000F026FD40212068EFE700212068ECE7A2
:1020F00010212068E9E720212068E6E730212068E8
:10210000E3E7704770B50446006801694FF00005C9
:10211000C943890715D4C168C943890711D4E91E89
:10212000016101202077206880698007204602D065
:10213000FFF7E7FF04E000F098F8204600F096F87B
:10214000257720680169C943490717D4C168C94385
:10215000490713D46FF00401016102202077206841
:10216000806910F4407F204602D0FFF7CAFF04E0E8
:1021700000F07BF8204600F079F8257720680169A7
:10218000C943090716D4C168C943090712D46FF0BF
:1021900008010161042020772068C069800720467B
:1021A00002D0FFF7AEFF04E000F05FF8204600F039
:1021B0005DF8257720680169C943C90617D4C1684D
:1021C000C943C90613D46FF01001016108202077BC
:1021D0002068C06910F4407F204602D0FFF791FFCD
:1021E00004E000F042F8204600F040F8257720682F
:1021F0000169C943C90708D1C168C943C90704D1E6
:10220000891E0161204600F033F820680169C94346
:10221000090609D4C168C943090605D46FF08001D5
:1022200001612046FFF75FFE20680169C943490646
:1022300009D4C168C943490605D46FF04001016162
:10224000204600F02BF820680169C94389060BD4A9
:10225000C168C943890607D46FF020010161204697
:10226000BDE87040FFF740BE70BD7047704700008A
:10227000084A0168914201D1002106E0B1F1804F86
:1022800005D0054A914204D1022101F02BB9012168
:10229000FBE77047002C0140000400407047704786
:1022A00070B5026804461068D168536910F00F0FCA
:1022B00051D003F0010501F4907635435DD0C2079B
:1022C00005D0CA0503D5E26B42F00102E263420782
:1022D00005D5DA0703D0E26B42F00202E26382071F
:1022E00005D5DA0703D0E26B42F00402E26302078D
:1022F00005D5DA0703D0E26B42F00802E263E26B35
:10230000002A34D0800604D5880602D5204600F085
:1023100048FC20684069E16BC0F3801001F00801BF
:102320000143204624D000F02EFC20684169490674
:102330001AD5416921F040014161606BA0B11B4990
:102340004163606BFEF748FE002810D0606B416B64
:10235000BDE87040084783060FD58B060DD5204693
:10236000BDE8704000F01DBC2046FFF798FF70BD2F
:10237000FFF795FF0020E06370BD030606D50B064E
:1023800004D52046BDE8704000F00EBD4006F3D5F0
:102390004806F1D5D168204621F04001D1602021C6
:1023A00084F8391000F0F2F870BD0000772B0008B7
:1023B00070B5040004D094F83900002510B106E08F
:1023C000012070BD84F83850204600F023F8242006
:1023D00084F839002068C16821F40051C1602046AA
:1023E00000F02AFC2068016921F490410161206815
:1023F000416921F02A0141612068C16841F400511E
:10240000C160E563202084F8390084F83A00002098
:1024100070BD000030B52F4D036800242E48022106
:10242000032285B0AB4222D1836943F480438361A8
:1024300080692A4D00F4804004900802CDE9000133
:10244000039269462846FFF70BF82815CDE90004EA
:10245000694628460294FFF703F80022022125204E
:10246000FFF782F92520FFF773F905B030BD1C4D49
:10247000AB42FAD1C36943F40033C361C069194D5B
:1024800000F4003004902020CDE900010392694659
:102490002846FEF7E5FF4020CDE9000469462846BE
:1024A0000294FEF7DDFF104C606840F008006060A9
:1024B000002211462620FFF757F92620FFF748F99A
:1024C000606820F0E0606060606840F0007060600C
:1024D000CBE7000000380140001002400008014036
:1024E00000440040001401400000014090F83A30E0
:1024F000202B22D1F9B1F2B190F83830012B1CD049
:1025000081628285C2850021C163222280F83A203F
:1025100080F838100168CA6842F48072CA600168A5
:102520004A6942F001024A610068C16841F0200135
:10253000C1600020704701207047022070470000F2
:1025400010B500680C4A0D49904206D1087801F098
:10255000EBFA012209490A4809E00A4A90420AD1E5
:10256000487801F0E1FA054901220748491CBDE815
:102570001040FFF7BBBF10BD003801400B0000202A
:10258000EC020020004400402C03002070470000B3
:10259000FEB52A48284900250160891501244561B6
:1025A000C0E90214072606614FF460214560C1614D
:1025B000FEF7DEF800B1FEE7CDE9005469461F489A
:1025C0000296FDF7DDFF00B1FEE70220CDE90040F5
:1025D00069461A48FDF7D4FF00B1FEE703200090DA
:1025E000019069461548FDF7CBFF00B1FEE70420D6
:1025F0000090019069461148FDF7C2FF00B1FEE767
:1026000005200090019069460C48FDF7B9FF00B124
:10261000FEE706200090019069460848FDF7B0FFEC
:1026200000B1FEE70096694604480196FDF7A8FF51
:10263000002800D0FEE7FEBD00240140B8010020C4
:102640000E4810B50C4901600C21416000214FF487
:1026500080228160C0E903124FF4A002C0E9052185
:10266000C161016241628162C162FEF779FB0028AB
:1026700000D0FEE710BD000000640040E80100202B
:102680002DE9F04F704885B0816941F040018161CA
:10269000816901F040010491816941F0100181617B
:1026A000816901F010010491816941F004018161A7
:1026B000816901F004010491816941F0080181619F
:1026C000816901F008010491816941F02001816173
:1026D0008069002200F0200004907C215B48FEF716
:1026E000BCFF4FF4F044002221465948FEF7B5FFE5
:1026F0004FF48277002239465648FEF7AEFFDFF8E6
:1027000058A141F2FB38002241465046FEF7A5FF92
:10271000DFF848B140F60109002249465846FEF765
:102720009CFF012202214948FEF797FF7C200125EA
:10273000CDE900050326694603964448FEF790FE5E
:10274000694643480396CDE90045FEF789FE3F20E0
:10275000009043480024CDE9010469463C48FEF757
:102760007FFECDE9007569463A480396FEF778FE8C
:10277000CDE90085694650460396FEF771FE4FF499
:102780007050CDE90004694630480294FEF768FEB7
:102790006803CDE90004694650460294FEF760FEE6
:1027A000CDE90095694658460396FEF759FE4FF469
:1027B0007040CDE90004694658460294FEF750FE89
:1027C0004FF47070CDE90004694621480294FEF789
:1027D00047FE0220CDE90005039069461B48FEF73D
:1027E0003FFE002211460620FEF7BEFF0620FEF740
:1027F000AFFF002211460720FEF7B6FF0720FEF7C5
:10280000A7FF002211460820FEF7AEFF0820FEF7C2
:102810009FFF002211460920FEF7A6FF0920FEF7C0
:1028200097FF002211460A20FEF79EFF0A20FEF7BE
:102830008FFF002211461720FEF796FF1720FEF7A4
:1028400087FF05B0BDE8F08F00100240001801407E
:102850000010014000080140000C0140001401403C
:102860000000311010B5144886B0124901604721AC
:102870000024C0E9011440F2E731C0E903144461C7
:102880008461FFF75AFB00B1FEE74FF480500090DF
:1028900069460948FFF7BCFB00B1FEE7049404A9B0
:1028A00005480594FFF721FB002800D0FEE706B09D
:1028B00010BD0000002C01402C02002010B5134870
:1028C00086B04FF08041016047210024C0E9011427
:1028D00040F2E731C0E903148461FFF72EFB00B139
:1028E000FEE74FF48050009069460848FFF790FBE0
:1028F00000B1FEE7049404A904480594FFF7F5FA33
:10290000002800D0FEE706B010BD00006C020020D9
:1029100010B5134886B01149016047210024C0E971
:10292000011440F2E731C0E903148461FFF705FBAD
:1029300000B1FEE74FF48050009069460848FFF769
:1029400067FB00B1FEE7049404A905480594FFF76E
:10295000CCFA002800D0FEE706B010BD000400400D
:10296000AC0200200907090E002806DA00F00F006B
:1029700000F1E02080F8141D704700F1E02080F89D
:102980000014704710B5FEF773FEBDE81040FFF766
:10299000A6BA30B595B00920012100904FF48030DF
:1029A000002504910691CDE901050224CDE90740F7
:1029B0004FF4E01009906846FFF7EEF800B1FEE72B
:1029C0000AA90F2081E831004FF480600D900E902D
:1029D00002210AA8FEF7DAFF00B1FEE74FF44040FB
:1029E00011900F940FA8FEF75BFF00B1FEE7FFF711
:1029F00077F84FF47A71B0FBF1F0FFF75CFA04203E
:102A0000FFF74CFA05210022881FFEF7ADFE15B036
:102A100030BD00000D48016841F0010101604168CE
:102A20000B4A1140416001680A4A11400160016887
:102A300021F480210160416821F4FE0141604FF4DE
:102A40001F0181600449C003086070470010024004
:102A50000000FFF8FFFFF6FE08ED00E00148FFF779
:102A600051BB00002C0200200148FFF74BBB0000C7
:102A70006C0200200148FFF745BB0000AC020020BB
:102A8000F0B502681C4B1D4D1D4E1E4F1E4C4FF0E5
:102A9000804C984209D0A04207D0604505D0A8429A
:102AA00003D0B04201D0B84204D122F0700E4A687F
:102AB00042EA0E02984209D0A04207D0604505D0F4
:102AC000A84203D0B04201D0B84203D122F44075ED
:102AD000CA682A4322F080054A692A4302608A684C
:102AE000C2620A688262984201D0A04201D109699B
:102AF000016301214161F0BD002C01400004004050
:102B000000080040000C00400034014010B584680B
:102B100042EA032224F47F440A432243826010BD28
:102B2000826822F070020A4342F007018160704718
:102B300010B5036A046A24F001040462846924F075
:102B4000F00444EA021423F00A020A438461026298
:102B500010BD10B5036A23F0100303628369046A91
:102B600023F4704343EA023224F0A00343EA011144
:102B70008261016210BD10B5406A0021C185C18427
:102B8000FFF78DFB10BD0168CA6822F49072CA601D
:102B900001684A6922F001024A61202180F83A1056
:102BA000704710B590F83A10222901D0022010BDCC
:102BB0008168B1F5805F11D00169002901681FD0DB
:102BC000496801F07F03816A4A1C82620B70C18DE3
:102BD000491E0904090CC18518D02BE00269816ADD
:102BE000002A0268526805D0D2B20A80816A491C64
:102BF0008162ECE7C2F308020A80816A891CF7E768
:102C00004A68816A4B1C83620A70E0E70168CA68FF
:102C100022F02002CA600168CA6822F48072CA6089
:102C200001684A6922F001024A61202180F83A10C5
:102C3000FFF786FC002010BD2DE9F0410446006836
:102C40000169E26821F44051114301612169A068E2
:102C50000843616908432168CA6841F20C639A43DA
:102C60000243CA6020684169A26921F4407111439E
:102C700041614C4920686425322688423CD1FEF7E8
:102C800045FF00EBC00101EB001061688900B0FB5B
:102C9000F1F7FEF73BFF00EBC00101EB00106168AC
:102CA000B0468900B0FBF1F0B0FBF5F06FF0180111
:102CB000484307EB800106EB0110B0FBF5F000F094
:102CC000F006FEF723FF00EBC00101EB0010616886
:102CD0008900B0FBF1F0B0FBF5F006EB0016FEF753
:102CE00015FF00EBC00101EB001061688900B0FB2B
:102CF000F1F7FEF70BFF3BE0FEF7F8FE00EBC0013B
:102D000001EB001061688900B0FBF1F7FEF7EEFE01
:102D100000EBC00101EB00106168B0468900B0FB18
:102D2000F1F0B0FBF5F06FF01801484307EB8001BC
:102D300006EB0110B0FBF5F000F0F006FEF7D6FE52
:102D400000EBC00101EB001061688900B0FBF1F0FD
:102D5000B0FBF5F006EB0016FEF7C8FE00EBC00175
:102D600001EB001061688900B0FBF1F7FEF7BEFED1
:102D700000EBC00101EB001061688900B0FBF1F0CD
:102D8000B0FBF5F06FF01801484307EB800108EB4A
:102D90000110B0FBF5F0216800F00F0030448860AE
:102DA000BDE8F0810038014090F83910212901D0A8
:102DB000022070478168B1F5805F016A0BD04A1C20
:102DC0000262026809785160C18C491E0904090C2D
:102DD000C1840ED017E009880268C1F30801516070
:102DE00001690029016A02D0491C0162ECE7891CD3
:102DF000FBE70168CA6822F08002CA600068C16807
:102E000041F04001C1600020704700000148FFF719
:102E100047BA0000EC0200200148FFF741BA000069
:102E20002C0300200148FDF781BE0000E8010020CE
:102E3000FEE702E008C8121F08C1002AFAD1704755
:102E40007047002001E001C1121F002AFBD170472A
:102E50001B481C4A416BD1E90501C2E90801012068
:102E600080F3108802F12000174983788B710023CA
:102E700083F31088012383F3108843784B71002378
:102E800083F31088012383F3108803780B710023E8
:102E900083F31088012383F310880379CB71002317
:102EA00083F31088012383F310884079487200204F
:102EB00080F3108883F31088137080F310887047B4
:102EC000E801002024000020E00000207047704747
:102ED00070477047F0B5124C0020124B024604F1C7
:102EE000180504F1080604F1280700BF03EB0011E0
:102EF00034F810C0A1F800C08A700A8155F820C0CB
:102F0000C1F804C036F810C0A1F80AC057F820C0B4
:102F1000401CC0B2C1F80CC00428E7D3F0BD0000CB
:102F200034000020C003002070477047704770478E
:102F3000F0B51E4B8DB00ECB8DE80E0000216A4619
:102F400001F5807342F82130491C89B20329F7D377
:102F500008A90023012481E81900009803254001F5
:102F6000CDE90303009E40F2FF7118467FEA060791
:102F700032F82060401C7E40B6B2314080B2A84298
:102F8000F6D3480105900220CDE906030E20CDE9D5
:102F90000B4003A90648FDF74FFD002803D04D2143
:102FA00004A0FFF745FF0DB0F0BD0000F03B0008A6
:102FB000E8010020757365725F66696C655C757306
:102FC00065725F63616E2E630000000070B50A4E8B
:102FD000002500BF06EBC504E07828B9A078E070B2
:102FE00060688047E07810B1C0B2401EE0706D1C90
:102FF000EDB2022DEED370BD00040020704700003A
:10300000F0B50C4C00200C49E51E034614F10406F3
:1030100034F8102021F8302001EBC0022F5C9770AB
:10302000D37056F82070401CC0B257600228EFD30E
:10303000F0BD0000280000200004002070470000C0
:1030400013481249062201630A60026B0021916055
:10305000026BD160026B08211161026B4321117573
:10306000026B41215175026B4E219175026B20213B
:10307000D175026B49211176026B53215176026B97
:103080004F219176006B4B21C176704730040020B0
:10309000E8010020012080F3108803490020087017
:1030A00080F310887047000024000020012080F386
:1030B000108803480021007881F3108870470000D1
:1030C0002400002008B5FEF7DBFAFFF762FCFFF7EB
:1030D000D7FAF848416941F0010141614069002295
:1030E00000F00100009004210B20FEF73DFB0B20B7
:1030F000FEF72EFBFFF74CFAF04DEF480024286056
:103100004FF41650C5E901040C26EC60C5E90446ED
:10311000AC612846EC61FFF74BF900B1FEE7FFF721
:10312000A1FBFFF7CBFBFFF7F3FBE448E44940309A
:1031300001604FF4E131C0E90114C460C0E9044604
:103140008461C461FFF734F900B1FEE7FFF778FA54
:1031500000F068FC00F0BCFC00F00CFD00F028FD65
:1031600000F02CFC00F00AFC00F072FBDFF854A326
:10317000A146DFF854B3DFF85483D54D0AF10304B8
:10318000CAF8089048468AF80090012282F3108815
:10319000CAF8109080F31088012383F31088CBF8CD
:1031A000089080F3108883F31088CBF8489089F357
:1031B00010881E46CBF8889000F0B8FB4FF4005101
:1031C0004046FEF741FAA0B30021012080F31088A9
:1031D00060780844A070002080F31088012080F3FC
:1031E00010882F78002080F31088012080F3108849
:1031F000FFF75CFF002181F3108807437DD0012099
:1032000080F310884F4685F8009087F3108880F38C
:103210001088FFF73FFF87F31088DAF808000A22CA
:10322000401C90FBF2F302FB1300CAF8080018B12F
:103230000CE0FFE70121C8E7022147464046FEF7C0
:1032400008FA4FF480513846FEF703FAA0780028B8
:103250004FF0010080F3108821D0A8790101CBF84C
:103260000810002181F31088012181F31088697909
:103270000901CBF84810002181F31088012181F366
:10328000108829790901002080F31088012080F33B
:103290001088CBF88810E879E070002015E04846E7
:1032A00080F31088012282F31088CBF8089080F315
:1032B000108882F31088CBF8489080F3108882F34E
:1032C0001088CBF8889084F8039080F31088814FA1
:1032D00084F800904FF480513846FEF7B5F910B9E4
:1032E0002078401C20704FF400513846FEF7ACF9AE
:1032F00010B92078801C207000E046E04FF4804137
:103300003846FEF7A1F910B92078001D20704FF45F
:1033100000413846FEF798F910B92078083020703F
:103320006D4F40213846FEF78FF910B920780A30EA
:10333000207080213846FEF787F910B920781430C4
:1033400020704FF480713846FEF77EF910B920786E
:10335000283020704FF400713846FEF775F910B927
:10336000207850302070697A207881420DD1554AFA
:1033700001210C328AF80010907081F31088607877
:10338000D070002080F3108802E09AF80000F0B1BD
:1033900000224FF480715148FEF75FF9DAF81010FF
:1033A000504629B1454A12681268D243120607D422
:1033B000444A0C32535C414A12685360491C016113
:1033C00004290FD1C0F810908AF800900AE03B4819
:1033D00000680068C043000604D4012211023F487F
:1033E000FEF73BF9A078B0B9484684F80390012174
:1033F00081F3108880F31088012282F31088CBF8C3
:10340000089080F3108882F31088CBF8489089F3F5
:103410001088CBF88890E078314F40F30002042107
:103420003846521CFEF719F9E078082140F34002B3
:103430003846521CFEF711F9E078791540F3800206
:1034400047464046521CFEF708F9E078802140F3D9
:10345000C0023846521CFEF700F9E078402140F3E4
:1034600000123846521CFEF7F8F8E078202140F3AD
:1034700040123846521CFEF7F0F8E078102140F375
:1034800080123846521CFEF7E8F8E078082140F335
:10349000C0123846521CFEF7E0F8E078C00700D0B2
:1034A00000260122691C0548FFF720F8002E7FF452
:1034B00083AE65E60010024000380140EC020020B7
:1034C0000044004010000020F8000020000C0140E3
:1034D000E0000020001401400010014000080140FD
:1034E000001801402DE9F05F0D463949074601EB10
:1034F00085140020D4E90E9394F83420217F40F203
:10350000E7389A46012A0BD05AB1A18C0122206AD1
:10351000FEF7A3F8A18D0122A06AFEF79EF850E005
:1035200001202C4E725D32B14FF0000B012A2CD0DD
:1035300006F805B045E0024681420BD02277A18C07
:103540000122206AFEF789F8A18D0122A06AFEF708
:1035500084F817E040B1A18C0022206AFEF77DF8C4
:10356000A18D0122A06A08E04AB9A18C0122206A3B
:10357000FEF773F8A18D0022A06AFEF76EF8705D69
:10358000401C70554FF063081BE0A18C0122206A9B
:10359000FEF763F8A18D0122A06AFEF75EF806F837
:1035A00005B048465146FCF701FE0B49097800EB8F
:1035B0000108B8F5803F02D2B8F1600F01D24FF098
:1035C00060083868C0F82C80C7F80C80BDE8F09F10
:1035D000F800002008000020120000206C4B30B5DD
:1035E00003EB400300211B890A466A4C04EB801060
:1035F000436084680463E31A002B01DD1C4600E08D
:103600005C42442594FBF5F43C2C21D2DFE804F025
:103610001E1E1E212124272A2D303336393C3F42DD
:1036200045484B4E4E4E4E4E4E4E4E4E4E4E5154C3
:10363000575A5D606366696C6F727575787B7E81C1
:1036400084878A8D909396999C9FA2A50021524AC7
:1036500085E00021514A82E00021514A7FE00021AB
:10366000504A7CE00021504A79E000214F4A76E040
:1036700000214F4A73E000214E4A70E000214E4A7B
:103680006DE000214D4A6AE000214D4A67E00021CB
:103690004C4A64E000214C4A61E000214B4A5EE064
:1036A00000214B4A5BE000214A4A58E000214A4A87
:1036B00055E00021494A52E00021494A4FE00021EB
:1036C000484A4CE00021484A49E00021474A46E088
:1036D0000021474A43E00021464A40E00021464A93
:1036E0003DE00021454A3AE00021454A37E000210B
:1036F000444A34E00021444A31E00021434A2EE0AC
:103700000021434A2BE00021424A28E00021424A9E
:1037100025E00021414A22E00021414A1FE000212A
:10372000404A1CE00021404A19E000213F4A16E0CF
:1037300000213F4A13E000213E4A10E000213E4AAA
:103740000DE000213D4A0AE000213D4A07E000214A
:103750003C4A04E000213C4A01E03C4A002103F2DB
:103760003F1440F27F25AC4201D2022305E0B3F5BD
:10377000A07F01DB012300E0002380F83430012327
:1037800083F31088C0E90E12002080F3108830BD4A
:10379000D2000020F800002000388F4000C0824096
:1037A00000D0814000A881400080814000588140C5
:1037B000003081400008814000E0804000B8804037
:1037C00000908040006880400040804000188040A9
:1037D00000E07F4000907F4000407F4000F07E404E
:1037E00000A07E4000507E4000007E4000B07D4042
:1037F00000607D4000107D4000C07C4000707C4037
:1038000000207C4000D07B4000807B4000E07A407C
:1038100000907A4000407A4000F0794000A0794062
:10382000005079400000794000B078400060784056
:103830000010784000C0774000707740002077404B
:1038400000D07640008076400030764000E0754041
:1038500070B5344D4FF480612846FDF7F5FE324CCB
:103860000028607802D040F0010001E000F00E0076
:1038700060704FF400612846FDF7E6FE002860788E
:1038800002D040F0020001E000F00D0060704FF443
:1038900080512846FDF7D8FE0028607802D040F01D
:1038A000040001E000F00B0060704FF40051284666
:1038B000FDF7CAFE0028607802D040F0080001E061
:1038C00000F007006070C0B2102829D2DFE800F0D5
:1038D000080A0C0E10121416181A1C1E2022242678
:1038E0001E201CE019201AE0142018E00F2016E01A
:1038F0000A2014E0052012E0002010E0FB200EE07A
:10390000F6200CE0F1200AE0EC2008E0E72006E0D9
:10391000E22004E0DD2002E0D82000E0D320A07007
:1039200070BD0000001801401000002070B5124E5C
:10393000002500BF06EB0514E06860B1FDF792FEBC
:103940002168401AE168884211D3FDF78BFE2060A0
:103950000020E06009E0FDF785FE2168411AA068BB
:10396000814204D3FDF77EFE2060606880476D1CB5
:1039700015F0FF05DED070BD6C00002070B5094D5C
:10398000002400BFFDF76EFE05EB0411641C086007
:1039900014F0FF04F6D0FFF733FBBDE87040FFF7EB
:1039A00099BA00006C0000200348016841F0020150
:1039B0000160FFF70BBB00001464004000B58BB042
:1039C000FFF73EFB15491448486301210E20CDE95D
:1039D000081000208A03CDE90020CDE902200490E0
:1039E000CDE90501079169460C48FDF725F801204E
:1039F000FFF79EFA0A48016841F04001016000218A
:103A00000648FDF777FA04480BB020213C385DF8F2
:103A100004EBFCF7C0BB00004C040020E8010020D0
:103A20000064004070B5244C012204212046FDF7BB
:103A300014FE012208212046FDF70FFE1F4D012232
:103A400051022846FDF709FE012280212846FDF794
:103A500004FE012240212846FDF7FFFD012220211E
:103A60002846FDF7FAFD012210212846FDF7F5FD55
:103A7000012208212846FDF7F0FD00220221204600
:103A8000FDF7EBFD012240212046FDF7E6FD012276
:103A9000D1020B48FDF7E1FD012211020948FDF7B3
:103AA000DCFD0948FCF708FDBDE87040232207490A
:103AB0000548FCF73BBF000000180140000C014026
:103AC0000014014000080140B80100208C000020D3
:103AD00010B5C0210F48FCF75EFB0E480E490122CD
:103AE0000162042181840D4981620D49828501664C
:103AF000A0F864200B4A8B148266A0F86C30C0F8E2
:103B0000A0108915A0F8A410C900C0F8A820A0F83A
:103B1000AC1010BDF8000020000801400014014066
:103B2000000C01400010014011494870887D10B917
:103B30004878FF280AD08A7D0020012A09D08A7D92
:103B4000082A4A780FD3EE2A0BD108E0887D401C62
:103B500007E04A78C22AF9D0FF2A02D17047012231
:103B60000A70887570478B7D0148801C1A54EDE7F8
:103B7000E00000200B4810B5016840F2E734CC6249
:103B8000C460FEF739FA08480168CC62C460FEF7E9
:103B900033FA06480168CC62C460BDE81040FEF705
:103BA0002BBA00002C0200206C020020AC02002086
:103BB00010B5012205490648FEF798FC0349012289
:103BC000BDE81040491C0348FEF790BC0B000020E4
:103BD000EC0200202C030020000000000000000088
:103BE00001020304060708090000000001020304A3
:103BF0000001000001010000020100001C3C00085F
:103C0000000000207C000000322E0008983C0008D4
:103C10007C000020F4070000422E00080000000095
:103C200000A24A04000000000000000000000000A4
:103C30000000000000000000FFC1000000000000C4
:103C400000320A0000040000FD2F00083D3000088B
:103C50000001010102010002190019001900E80326
:103C60000000000000000000D12E00082D2F0008E9
:103C7000292F0008CD2E0008D32E00082F2F000872
:103C80002B2F0008CF2E000800000000A9390008E3
:083C90000A000000E803000037
:0400000508000131BD
:00000001FF
