:020000040800F2
:1000000078090020450100084D0100084F01000853
:1000100051010008530100085501000800000000CC
:100020000000000000000000000000005701000870
:1000300059010008000000005B010008792E00084B
:100040005F0100085F0100085F0100085F01000810
:100050005F0100085F0100088B0800089108000894
:10006000970800089D080008A30800085508000824
:100070005F0100085F0100085F0100085F010008E0
:100080005F0100085F0100085F0100085F010008D0
:100090007D3300085F0100085F010008A90800081F
:1000A0005F010008512F00085F0100085F01000890
:1000B0005D2F0008692F00085F0100085F0100083C
:1000C0005F0100085F0100085F0100085F01000890
:1000D0005F01000865330008713300085F01000804
:1000E0005F0100085F0100085F0100085F01000870
:1000F0005F0100085F0100085F0100085F01000860
:100100005F0100085F0100085F0100085F0100084F
:100110005F0100085F0100085F0100085F0100083F
:100120005F0100085F0100085F0100085F0100082F
:10013000DFF80CD000F050FA004800471D3B0008E3
:10014000780900200648804706480047FEE7FEE79A
:10015000FEE7FEE7FEE7FEE7FEE7FEE7FEE7FEE777
:10016000092F000831010008202A04DB203A21FA77
:1001700002F00021704721FA02F3D040C2F12002C0
:100180009140084319467047D2B201E000F8012BB4
:10019000491EFBD270470022F6E710B513460A4607
:1001A00004461946FFF7F0FF204610BD2DE9FE4F2B
:1001B000804681EA0300C00F0C46009021F0004108
:1001C00023F00045B8EB0200A94105D24046214684
:1001D00090461C460B46024623F00040104347D091
:1001E000270DC7F30A00C3F30A510290401A019089
:1001F00040286BDAC3F3130040F4801B009892464A
:1002000020B10023D2EB030A63EB0B0B0198594694
:10021000C0F14002504600F061F906460D465046D6
:100220005946019A00F069F910EB08006141002479
:1002300087EA115284EAE7731A4340D0009A62B306
:10024000019A012A4FEA075215DC001B61EB0201FB
:100250004FF0004202EA0752CDE90042001C41F58E
:10026000801132462B4600F069F903B0BDE8F08FEB
:1002700040462146F9E7001B61EB0201001C41F5F5
:10028000801300185B412018A2F5001747EB03010B
:1002900040EAD570B6196D4111E06D084FEA360697
:1002A00045EAC0754FEA0752001B61EB0201001CD2
:1002B00041F5801149084FEA30000019514132469A
:1002C0002B4603B0BDE8F04F00F029B90098012299
:1002D00040000023D0EB020263EBE073009821465C
:1002E0004FEAE074B8EB000061EB0401E9E783F04A
:1002F00000435BE781F0004158E72DE9FE4F81EABA
:10030000030404F0004421F0004100944FF0000B7E
:1003100023F0004350EA01045ED052EA03045BD0AC
:10032000C3F30A54C1F30A552C44A4F2F3340194E4
:10033000A0FB0254C1F3130141F48011C3F3130372
:1003400043F4801301FB024400FB034E840A970A26
:1003500044EA815447EA8357A4FB076802958D0A53
:1003600005FB07854FEA932C04FB0C542705029DDF
:100370004FEA065847EA1637B5EB08056EEB070C4F
:10038000870E920E47EA811742EA8312A7FB020109
:10039000B6EB0B0164EB00042B0D43EA0C335E1843
:1003A00044EB1C50DA465146E7FB0201C5F3130447
:1003B0004FEA0B3343EA14534FEA0432019C43EAF9
:1003C0000603A4F10C040294009CCDE900B400F0F3
:1003D000B5F803B0BDE8F08F00200146F9E770B52D
:1003E00021F0004303430CD0C1F30A550024D5EBA0
:1003F000040564EB0403D617AD1AB34102DB0020F9
:10040000014670BD201841EB025170BD0EB5C10F01
:1004100080EAE0700844CA07002140F233438DE8C7
:100420000E000A460B4600F089F803B000BD0EB579
:1004300040F2334102910021CDE900110A460B46FA
:1004400000F07CF803B000BDC1F30A5210B5C1F34F
:10045000130140F2FF3341F480119A4201DA002087
:1004600010BD40F233439A42A2F2334203DC5242BF
:10047000FFF77AFE10BD904010BD000030B5041E9D
:1004800071F1000404DB4FF00044404264EB0101D1
:10049000141E73F1000405DB1C464FF0004352426A
:1004A00063EB04038B4208BF824230BD30B5041EAB
:1004B00071F1000404DB4FF00044404264EB0101A1
:1004C000141E73F1000405DB1C464FF0004352423A
:1004D00063EB0403994208BF904230BD202A04DB3D
:1004E000203A00FA02F1002070479140C2F1200347
:1004F00020FA03F3194390407047202A06DBCB17FC
:10050000203A41FA02F043EAE07306E041FA02F3CE
:10051000D040C2F12002914008431946704710B5FF
:10052000141E73F1000408DA401C41F10001921816
:100530005B411A4301D120F0010010BD2DE9F04DBF
:1005400092469B4611B1B1FA81F202E0B0FA80F214
:1005500020329046FFF7C2FF04460F4640EA0A00E9
:1005600041EA0B0153465A46084313D0114653EA59
:10057000010019D0C8F140025046FFF7F5FD0546CD
:100580000E46504659464246FFF7A8FF084305D09D
:10059000012004E020463946BDE8F08D00200543E7
:1005A00046EAE0762C4337430A986305E40AA0EB59
:1005B00008000022FD0A44EA47540A3002D5002010
:1005C0000146E9E7010510196941DDE9084500190F
:1005D0006941BDE8F04DA2E7064C074D06E0E06832
:1005E00040F0010394E8070098471034AC42F6D37A
:1005F000FFF7A2FD744700089447000870B5044651
:1006000000688168C943C9071CD1816821F00101D4
:10061000816001F03DFA05460FE000BF01F038FAB5
:10062000401B022809D9A06A40F01000A062E06ACD
:1006300040F00100E062012070BD20688068C04386
:10064000C007EBD0002070BD10B50146406A826A39
:1006500012F0500F05D0006A026BBDE8104008464A
:100660001047816A41F40071816201688968C1F3B1
:10067000424107290CD1C16851B9816A21F48071C6
:100680008162816AC90403D4816A41F001018162F7
:1006900000F0F0F910BD10B5406A816A41F04001E8
:1006A0008162C16A41F00401C16200F06CFA10BDC0
:1006B00010B5406A00F066FA10BD0000F8B50026DB
:1006C0000446009600688168C943C90728D081683C
:1006D00041F001018160134813490068B0FBF1F05B
:1006E00000E0401E00900028FBD101F0D1F9054642
:1006F00011E000BF01F0CCF9401B02280BD9A06A21
:1007000040F01000A062E06A40F00100E06284F86E
:1007100024600120F8BD20688068C043C007E9D18B
:100720000020F8BD0400002040420F0010B5002951
:1007300058D0826B4FF4D873046803EB0113E4586C
:1007400014F0040494600468E4584DD0E408546044
:100750000468E35803F00203D3604FF4DA730468CB
:1007600003EB0113E45804F00F04146111620468F0
:10077000E358C3F30723D3614FF4DC73046803EB3E
:100780000113E45814750468E458240A5475046885
:10079000E458240C94750468E3581B0ED3754FF489
:1007A000DE73046803EB0113E45814760468E4581C
:1007B000240A54760468E458240C94760468E358B8
:1007C0001B0ED3760368202289B11A61026853692F
:1007D00023F05003536190F83C20222A0DD0322A96
:1007E0000BD00FE0426BA5E7640D1460B0E7DA6050
:1007F0000268536923F00A03ECE70268536923F4A3
:100800000F43536112220123002990F83C1006D0B7
:10081000522915D0622916D0722906D115E0422935
:100820000ED0622908D0722908D080F83C3000BF71
:1008300000F0C6FD002010BD322107E0522105E086
:1008400080F83C20F4E7222100E0422180F83C10AF
:10085000EEE70000014800F05FBE000074040020D5
:1008600030B590F840500124AC40C56B6C60046812
:1008700063604368102B036803D099600068C2600E
:1008800030BD9A600068C16030BD012000F0F2BF49
:10089000022000F0EFBF042000F0ECBF082000F0C1
:1008A000E9BF102000F0E6BF202000F0E3BF000009
:1008B000F8B500250446009590F82400012808D0DA
:1008C000012084F824002046FFF798FE060002D09D
:1008D0004BE00220F8BDA06A20F4885040F00200EE
:1008E000A062022001F088F922490968B1FBF0F00A
:1008F000400000E0401E00900028FBD12046FFF79A
:10090000DDFE2068816841F00801816001F0C0F8D7
:10091000074604E001F0BCF8C01B0A2811D8206883
:1009200080680007F6D42068816841F00401816086
:1009300001F0AEF807460EE001F0AAF8C01B0A2845
:1009400009D9A06A20F0020040F01000A06284F8EB
:1009500024500120F8BD206880684007ECD4A06ACC
:1009600020F0020040F00100A06284F824503046DC
:10097000F8BD000004000020F8B50024009490F8B1
:1009800024202546012A12D0012280F824204A681A
:100990001F23072A0DD20668776B521E02EB8202D4
:1009A00093409F430B6893401F43776319E00220F5
:1009B000F8BD06680D2A0AD2376BD21F02EB8202FD
:1009C00093409F430B6893401F43376309E0F76AE6
:1009D0000D3A02EB820293409F430B6893401F4302
:1009E000F7620A68072306680A2A0AD3F7680A3AF0
:1009F00002EB420293409F438B6893401F43F76092
:100A000008E0376902EB420293409F438B689340B2
:100A10001F4337610A68102A01D0112A20D1124BD6
:100A200002689A4217D193681B0219D4936843F461
:100A3000000393600968102912D10C490C4A096817
:100A4000B1FBF2F101EB8101490000E0491E009188
:100A50000029FBD104E0816A41F020018162012478
:100A600080F824502046F8BD0024014004000020F6
:100A700040420F002DE9F04100243D4D204605265F
:100A800005F1460300221146C1EBC10705EB4707FC
:100A900037F81070491C3A440529F5DBB2FBF6F132
:100AA00023F81010401C0728ECDB314D00204FF4D8
:100AB0007A72103D33F81010914202D245F820208E
:100AC00005E055F8201011B1491E45F82010401CD2
:100AD0000428EFDB5FF0000055F8201009B1641C1A
:100AE000A4B2401C0428F7DB224E28684FF4804152
:100AF00008B1002200E00122304600F0C4FF68681F
:100B00004FF4005108B1002200E00122304600F00D
:100B1000BAFF194EA86808B1002200E00122202186
:100B2000304600F0B0FFE86808B1002200E0012282
:100B30001021304600F0A7FF10484470002003F059
:100B40003FFB012003F03CFB022003F039FB0C4883
:100B50000078002809D103F055FB012003F052FB77
:100B6000BDE8F041022003F04DBBBDE8F08100007C
:100B700088000020001001400018014017000020EC
:100B800012000020704770472DE9F04104004FF03B
:100B9000000514D0A06A002628B9E66284F8246013
:100BA000204600F083F82046FFF728FDA16A01F0F7
:100BB0001001014304D0A06A40F01000A0626BE075
:100BC000A16A21F4885141F00201A16233492368EE
:100BD0008B42E16904D1B1F5402F01D14FF40021DE
:100BE000E7684FF4807C41EA470261680A43A168E4
:100BF000614509D0012907D05FF00001D4F814E065
:100C0000BEF1010F02D00AE06146F7E7C7B1A76A5B
:100C100047F02007A762E76A47F00107E7625F68CD
:100C200027F469470F435F60236899681C4F394078
:100C300011439960A16861450BD0012909D00CE0EE
:100C4000DFF860E0A7690EEB47370F4347F4006118
:100C5000E5E7218A0D05A5F580152168CB6A23F407
:100C600070032B43CB62216889680F4B1940914276
:100C700008D1E662A16A21F0020141F00101A162FE
:100C8000BDE8F081A06A20F0020040F01000A062F0
:100C9000E06A40F00100E0620120F1E7003C014021
:100CA000FDF7E1FF00E0FFFFFE0E1FFF30B5054638
:100CB0000068184985B0884229D11748816941F4F4
:100CC000007181618069694600F400700490FB2026
:100CD000009003200190114800F0D8FD114C1048FD
:100CE0008021206000206060C4E902014900216188
:100CF000890061612021C4E90610204600F030FD22
:100D000018B17C2108A002F03FFB2C62656205B09F
:100D100030BD0000002401400010024000080140E6
:100D200008000240740400202E2E2F5372632F738C
:100D3000746D3332663178785F68616C5F6D7370A3
:100D40002E6300002DE9F047894604463B490068C0
:100D50003B4F0E1D9046884201D0B84207D1306803
:100D600010F4702F03D001252846BDE8F08794F8D1
:100D7000240001280CD0012084F824002046FFF72D
:100D80009DFC05004FF0000004D084F82400EBE740
:100D90000220EAE7A16A40F60162914341F48071C2
:100DA000A1622168B94218D1326812F4702F14D0B0
:100DB000A16A41F48011A1623168490505D5A16A93
:100DC00021F4005141F48051A162A16AC9040AD5FD
:100DD000E16A21F00601E16206E0A26A22F48012D3
:100DE000A2624968E9E7E06284F82400216A1548B4
:100DF0008862216A1448C862216A1448086321681D
:100E00006FF0020008602068816841F480718160A1
:100E1000216843464A464C31206A00F0E3FC2068D2
:100E20008168C1F342410729816803D041F48011F0
:100E3000816099E741F4A001FAE700000024014035
:100E40000028014049060008B1060008970600087E
:100E5000F0B50C7D012303FA04F20468D4F80052C3
:100E60004E6A25F47C5503EB06231D43C4F800525B
:100E70000368D3F81C429443C3F81C424FF4107328
:100E8000CD691C1DBDB90568D5F80C629643C5F83F
:100E90000C628E894D684F6966F31F45066803EB47
:100EA000C707F5510E890D684F6966F31F4506683F
:100EB00004EBC707F551CD69012D17D10568D5F8A9
:100EC0000C621643C5F80C620E884D684F6966F3D4
:100ED0001F45066803EBC703F5500D89CB684E69C3
:100EE00065F31F43056804EBC6042B518B69002B87
:100EF0000368D3F8044211D054EA0204C3F8044250
:100F00000B69002B0368D3F8144209D054EA020499
:100F1000C3F81442096A012904D009E09443EDE7BB
:100F20009443F5E70168D1F81C321343C1F81C3231
:100F30000068D0F8001221F00101C0F80012002072
:100F4000F0BD70472DE9F041044600680026C168F5
:100F5000C1F300134169C1F3C002102113B10AB1FA
:100F60004E01C160206802694369C2F30012C3F3F5
:100F700080131AB113B146F4806601612168486993
:100F80004FF00105C043C0074ED18A6876489043B0
:100F900023D000208B68754A9A4320D000228F68A6
:100FA000734BBB431DD00023104318433CD08868CB
:100FB0008A68C0F340008B68C2F3402203F001034B
:100FC0001043184329D04A69204622F001024A61A1
:100FD00094F83C10122906D00AE00120DAE7012239
:100FE000DDE70123E0E701684A6922F40F424A6124
:100FF00090F83C10422908D0522908D0722908D014
:1010000080F83C5000F0EEF909E0222102E03221A4
:1010100000E0622180F83C10F4E746F400662068A6
:101020008168544A114381602168C868496910F099
:10103000030FC1F3400104D019B100212046FFF78E
:1010400075FB21680869496910F0030FC1F30011AD
:1010500004D019B101212046FFF768FB206C304312
:10106000206420688169426911F0010F4369C2F36D
:101070000022C3F3C03305D022B11BB1216C41F073
:10108000010121648169C1F340034169C1F3402238
:101090004169C1F3C0312BB122B119B1216C41F0CA
:1010A000020121648169C1F3800341694269C1F38E
:1010B0008021C2F3C0322BB121B11AB1216C41F0B1
:1010C00004012164816911F0700F08D00022416988
:1010D000C1F3C0234169C1F3C03112B121E0012243
:1010E000F5E7F3B1E9B1816901F0700140292FD032
:1010F00006DC102909D020290BD030290DD123E09E
:10110000502929D0602908D12AE0216C41F008013A
:1011100002E0216C41F010012164816921F070012D
:101120008161206C00280DD021680420486084F87B
:101130003C502068416948F65B729143416120460A
:10114000FFF7FFFEBDE8F081216C41F02001E3E7ED
:10115000216C41F04001DFE7216C41F08001DBE7C9
:10116000216C41F48071D7E7010000040001000800
:1011700000000110090501002DE9F04104004FF0C5
:10118000000504D094F83C00002618B107E00120C7
:10119000BDE8F08184F83D60204600F083F802202D
:1011A00084F83C002068016821F002010160206899
:1011B000016841F00101016000F06AFC07464FF050
:1011C000030804E000F064FCC01B0A2853D8206820
:1011D0004068C007F6D021684868C00758D0A069A9
:1011E000012801D145F08005E06901282FD025F0C4
:1011F0004000226A012A2DD020F02000626A012AD4
:101200002BD020F01000A26A012A29D020F008007B
:10121000E26A012A27D020F004000A6822F0FC02CA
:1012200002430A60D4E902010843D4E904121143DD
:1012300008436168491E08432168C8612068016845
:1012400021F00101016000F023FC054618E045F0A3
:101250004000CEE740F02000D0E740F01000D2E799
:1012600040F00800D4E740F00400D6E700F010FC9E
:10127000401B0A2804D904F83C8F0320667087E7D6
:1012800020684068C007F1D120684068C00703D0DB
:10129000042084F83C007AE72664012084F83C00AE
:1012A000002075E710B50068154986B0884225D141
:1012B0001448C16941F00071C161C069124C00F06D
:1012C000007004904FF400600090002001900290A4
:1012D0006946204600F0DAFAA0140090022001903E
:1012E000032003906946204600F0D0FA0022022134
:1012F000142000F04FFC142000F040FC06B010BD9C
:1013000000640040001002400008014030B511B1F7
:10131000012925D010E090F83C20222A28D090F80E
:101320003C20422A24D000BF90F83C20622A1FD0E3
:1013300090F83C20722A1BD090F83D20012A17D04B
:10134000012280F83D20622290F83C40722389B14E
:10135000122C19D0222C18D0422C19D0322214E091
:1013600090F83C20322A03D090F83C20522ADBD15E
:10137000022030BD122C05D0322C06D0522C07D0C2
:10138000222202E0422200E0522280F83C2001E0CA
:1013900080F83C300022026403685C6948F60175FD
:1013A0002C435C6180F83D2000680029416904D02D
:1013B00041F050014161002030BD41F00A01F9E7E0
:1013C00010B5044601F0F0FF0549086840F002003E
:1013D00008602046BDE810400021FFF797BF0000DD
:1013E00014640040704700002DE9F05F90F8211070
:1013F0000024022903D004218163012485E00168CF
:101400000A6822F00E020A6001680A6822F00102EE
:101410000A603F4E3E4FB215DFF8F4C0DFF8F0909F
:10142000DFF8ECA0DFF8E8B0DFF8E4E00168783F2F
:1014300013011502ACF1640CA9F15009AAF13C0AA0
:10144000ABF1280BAEF1140E4FF48018B14227D93E
:10145000B9420ED0614512D049451DD0514518D032
:10146000594518D0714501D1424615E0294EB14287
:1014700001D1012210E0274E1436B14201D11022D1
:101480000AE0244E2836B14206D0224A3C3291422C
:1014900001D11A4600E02A461E49091F0A602BE0C6
:1014A000B94213D0614517D0494522D051451DD0CE
:1014B00059451DD0714501D142461AE0B14202D1D1
:1014C0004FF0807215E0134EB14201D1012210E0BD
:1014D000104E1436B14201D110220AE00D4E2836CA
:1014E000B14206D00B4A3C32914201D11A4600E08B
:1014F0002A46074980394A60012180F821100021DD
:1015000080F82010416B01B188472046BDE8F09F6C
:1015100080000240080402402DE9F05FC16B0A68B8
:1015200001680B68046C4FF0040808FA04F8844D55
:10153000844E854FDFF814C2DFF81492DFF814A24E
:10154000DFF814B2DFF814E218EA020F65D05FEAA0
:10155000437862D50A68920603D40A6822F004022E
:101560000A60DFF8F0814FF48062016808F1140826
:1015700013011402414524D9A9420DD0B1420FD024
:10158000B9421AD0614515D0494515D0514501D110
:10159000120312E0594501D104220EE0714501D138
:1015A00040220AE06D4D1435A94206D06B4A28321C
:1015B000914201D11A4600E022466749091F0A609C
:1015C00029E0A94213D0B14215D0B94220D06145DB
:1015D0001BD049451BD0514502D14FF4800217E082
:1015E000414502D14FF0806212E0594501D10422F9
:1015F0000EE0714501D140220AE0584D1435A94250
:1016000006D0564A2832914201D11A4600E02246BD
:101610004B4908394A60C16A71E04FF0020808FA84
:1016200004F818EA020F70D05FEA83786DD50A6873
:10163000920606D40A6822F00A020A60012180F8A4
:101640002110DFF810814FF40072016808F11408CE
:1016500013011402414524D9A9420DD0B1420FD043
:10166000B9421AD0614515D0494515D0514501D12F
:10167000120312E0594501D102220EE0714501D159
:1016800020220AE0354D1435A94206D0334A2832CB
:10169000914201D11A4600E022462F49091F0A60F3
:1016A00029E0A94213D0B14215D0B94220D06145FA
:1016B0001BD049451BD0514502D14FF4001217E011
:1016C000414502D14FF0007212E0594501D102228A
:1016D0000EE0714501D120220AE0204D1435A942C7
:1016E00006D01E4A2832914201D11A4600E0224615
:1016F000134908394A60002180F82010816A0029C6
:101700001CD0BDE8F05F0847FFE70825A54015425B
:1017100014D01A0712D50A6822F00E020A6090F857
:101720004020C36B012101FA02F25A60816380F804
:101730002110002180F82010016BE0E7BDE8F09F48
:10174000080002401C0002403000024044000240F9
:10175000580002406C000240080402401C04024091
:1017600030B560B11C4A03681421934209D21B4A68
:101770001A44B2FBF1F18900016419490AE0012021
:1017800030BD154A52421A44B2FBF1F1890001649E
:1017900011490839C163022180F821101A6843F603
:1017A000F0718A43F0E901142143D0E902452C434A
:1017B000214304692143446921438469214311433E
:1017C0001960002141628162C162016341630122AB
:1017D00042770177084630BD08040240F8FFFDBF9C
:1017E0000000024070B5044690F820000025012852
:1017F0000CD0012084F8200094F821600020012EF4
:1018000006D084F820000225284670BD022070BD55
:10181000022684F82160A0632068066826F001068D
:1018200006602046FFF71CF8E06A0028206801687F
:1018300002D041F00E0106E021F0040101602068B1
:10184000016841F00A0101602068016841F001016E
:101850000160D9E731B500F01BF9009C0546601C1A
:1018600000D0641C00F014F9401BA042FAD338BD2C
:1018700070470000044910B50A68024202D00860AF
:10188000FFF7F6FF10BD0000140401402DE9F84FEA
:10189000DFF8B8A100220AF1040B144601274FF02B
:1018A0000F090BF1040E00BF0B6807FA04F52B407B
:1018B000AB4274D1DFF898C14E68A6EB0C086645C0
:1018C0002BD00DDC032E34D005DC36B3012E19D01D
:1018D000022E2FD11BE0112E16D0122E2AD119E084
:1018E000B8F5881F19D006DCB8F5803F15D0B8F5DB
:1018F000801F1FD111E0B8F5001F0ED0B8F5041FEE
:1019000018D10AE0CA6815E0CA68121D12E0CA6858
:1019100008320FE0CA680C320CE08A682AB1012A4A
:101920004FF0080203D0456104E0042202E00561A3
:1019300000E00022FF2B01D8064601E000F104067A
:101940004FEA840501D9A5F12005D6F800C009FAAF
:1019500005F82CEA080C02FA05F54CEA050CC6F865
:1019600000C04D68ED006AD53A4DAE6946F00106FB
:10197000AE61AD6924F0030605F001050095364D12
:1019800006EB050CDCF80850A6074FEA167809FAB2
:1019900008F6B543314EB04202D100261AE04EE0BF
:1019A0002F4EB04201D1012614E02E4EB04201D19B
:1019B00002260FE02C4EB04201D103260AE02B4E46
:1019C000B04201D1042605E0294EB04201D10526DE
:1019D00000E0062606FA08F62E43CCF808604D68AB
:1019E000DAF80060ED03554601D51E4300E09E4342
:1019F0002E604D68AD0305D5DBF800601E43CBF8C3
:101A0000006004E0DBF800509D43CBF800504D68C7
:101A1000DEF80060ED02754601D51E4300E09E43EE
:101A20002E604D68AD0205D5084D0C352E681E435D
:101A30002E6004E0054E0C3635689D433560641C0D
:101A4000102CFFF431AFBDE8F88F00000004014016
:101A50000000111000100240000001400008014089
:101A6000000C01400010014000140140001801402A
:101A7000001C01408068084000D001207047C26807
:101A80004A40C26070470AB1016170470904FBE730
:101A9000014800687047000000000020024801680B
:101AA000491C01607047000000000020074810B585
:101AB000016841F010010160032000F08BF805205F
:101AC00000F006F800F018F8002010BD00200240D9
:101AD00010B5044607484FF47A710068B0FBF1F086
:101AE00000F0FFFB00222146501E00F053F80020BA
:101AF00010BD0000040000201E4808B5816941F0B7
:101B000001018161806900F001000090032000F074
:101B100061F8002211466FF00B0000F03BF8002244
:101B200011466FF00A0000F035F8002211466FF000
:101B3000090000F02FF800221146501F00F02AF88B
:101B400000221146101F00F025F800221146901EB9
:101B500000F020F805210022881F00F01BF806483D
:101B6000416821F0E0614160416841F000714160ED
:101B700008BD0000001002400000014000F01F02FC
:101B8000012191404009800000F1E020C0F80011DF
:101B900070470000F0B40E4B1B680C46C3F30223E1
:101BA000C3F10705042D00D90425191D072901D209
:101BB000002300E0DB1E012606FA05F1491E214044
:101BC00099409E40761E16403143F0BC01F044B966
:101BD0000CED00E0064900F0070208684FF6FF032D
:101BE000184040EA0220034A104308607047000092
:101BF0000CED00E00000FA0510B52CA401461DCC48
:101C000086B08DE81D002DA02D4C006804900020AA
:101C100004292FD00BDC01292FD0022928D100F074
:101C20008BF96168C1F38131491C49001EE0082924
:101C300020D010291CD161682268D20118D5C1F3C7
:101C40008342C9031DF8020009D5616804AAC1F3E3
:101C50004041515C1B4AB2FBF1F1484301E01A4993
:101C600048436168490203D440000321B0FBF1F00E
:101C700006B010BD00F070F9FAE7226AC2F3012144
:101C8000012903D1920701D5C803F1E7022905D143
:101C9000626A920702D549F64040E9E70329E7D195
:101CA00021688903E4D54FF22440E1E702030405EB
:101CB000060708090A0B0C0D0E0F10100102000098
:101CC0000010024000127A0000093D002DE9F8439F
:101CD00005460078354CC00754D0E0690026C000A6
:101CE00008D4E06940F08050E061E069012600F02E
:101CF000805000902E480168C90512D401688046C2
:101D000041F480710160FFF7C3FE074605E000BFA4
:101D1000FFF7BEFEC01B642823D8D8F80000C0051A
:101D2000F6D5206A10F4407021D0A98801F44071E2
:101D300081421CD0206A1F49012220F440700A60B1
:101D400000220A602062C00711D0FFF7A1FE0746FB
:101D500041F2883808E000BFFFF79AFEC11B4145F9
:101D600002D90320BDE8F883206A8007F4D5206AF1
:101D7000696820F44070084320621EB1E06920F0D9
:101D80008050E0612878800705D56068A96820F454
:101D90004040084360602878C00605D560686969DE
:101DA00020F48000084360600020DBE70010024060
:101DB00000700040400442422DE9F047DFF83C81CA
:101DC00005460E46D8F8000000F00700B0420CD2DD
:101DD000D8F8001021F007013143C8F80010D8F8F6
:101DE000000000F00700B04263D12878444C80071F
:101DF00005D56068A96820F0F00008436060287885
:101E0000C00745D06868012816D02168022816D07E
:101E1000890700294DDA616821F0030101436160FF
:101E2000FFF736FE6968074641F2883001290FD076
:101E30000229814619D027E021688903E9E7890151
:101E4000E7E700BFFFF724FEC11B494501D918E0B1
:101E500081466068C0F381000128F3D118E000BF1B
:101E6000FFF716FEC11B49450BD86068C0F381001F
:101E70000228F5D10CE000BFFFF70AFEC11B49455F
:101E800002D90320BDE8F087606810F00C0FF3D191
:101E9000D8F80010404601F00701B1420BD90168A3
:101EA00021F0070131430160006800F00700B042F3
:101EB00001D00120E6E72878400705D56068E96889
:101EC00020F4E060084360602878000706D5606869
:101ED000296920F4605040EAC100606000F03CF8DD
:101EE0006168084AC1F30311515CC84006490860A3
:101EF0000520FFF7EDFD0020C4E7000000200240B0
:101F0000001002405047000804000020014800680B
:101F10007047000004000020044805490068496833
:101F2000044AC1F30221515CC840704704000020FC
:101F300000100240604700080448054900684968ED
:101F4000044AC1F3C221515CC8407047040000201C
:101F5000001002406047000810B512A385B00FCBF7
:101F60008DE80F0013A0144B006804905A681348C2
:101F700002F00C0104290FD008290DD1C2F38344CB
:101F8000D2031DF8041009D55A6804ABC2F34042CD
:101F90009A5CB0FBF2F0484305B010BD08484843D6
:101FA000FAE7000002030405060708090A0B0C0DF6
:101FB0000E0F1010010200000010024000127A0003
:101FC00000093D002DE9F84F04460078B94DC007DF
:101FD00048D06868C0F38100012807D06868C0F362
:101FE0008100022809D16868C00306D528688003EB
:101FF00038D5606800286FD034E06068B0F5803F65
:102000000BD010B1B0F5A02F11D0286820F480308B
:102010002860286820F4802002E0286840F480309E
:102020002860606888B1FFF733FD064609E028683C
:1020300040F480202860F0E7FFF72AFD801B642829
:1020400075D828688003F7D50CE0FFF721FD064618
:1020500005E000BFFFF71CFD801B6428F0D828684E
:102060008003F7D42078944E80074FF001094FF099
:1020700000083BD5686810F00C0F07D06868C0F303
:102080008100022809D16868C00306D42868800747
:1020900014D5206901281FD110E02069B0B1C6F81D
:1020A0000090FFF7F5FC074605E000BFFFF7F0FCE6
:1020B000C01B0228C4D828688007F7D52868616942
:1020C00020F0F80040EAC10028600FE0C6F8008068
:1020D000FFF7DEFC074606E0E9E000BFFFF7D8FCAB
:1020E000C01B022823D828688007F7D4207800076F
:1020F0002CD57248A169D9B1C0F80090FFF7C8FC8F
:10210000074604E0FFF7C4FCC01B02280FD8686A2A
:102110008007F7D56A484FF4FA510068B0FBF1F038
:10212000009000BF0098411E0091FAD20EE080E0BE
:10213000C0F80080FFF7ACFC074604E0FFF7A8FCFE
:10214000C01B022875D8686A8007F7D4207840073A
:1021500060D5E8690027C00008D4E86940F08050E5
:10216000E861E869012700F0805000905548016857
:10217000C90513D40168834641F480710160FFF7FB
:1021800087FC824606E000BFFFF782FCA0EB0A0056
:1021900064284ED8DBF80000C005F5D5E0680128BA
:1021A0000AD008B1052813D0286A20F0010028625F
:1021B000286A20F0040002E0286A40F0010028624A
:1021C000E06841F2883B98B1FFF762FC82460BE081
:1021D000286A40F004002862EEE700BFFFF758FCD1
:1021E000A0EB0A0159455AD8286A8007F6D50CE0B9
:1021F000FFF74EFC824605E0FFF74AFCA0EB0A0120
:1022000059454CD8286A8007F6D41FB1E86920F0F8
:102210008050E861E06988B36968C1F381010229EF
:1022200045D00228C6F8608004D0FFF731FC044690
:1022300038E034E0FFF72CFC074604E0FFF728FC09
:10224000C01B02282BD828688001F7D4206AB0F57B
:10225000803F05D16868A16820F4003008436860B9
:10226000D4E908010843696821F4741108436860DF
:10227000C6F86090FFF70CFC044606E015E000BFCE
:10228000FFF706FC001B022809D828688001F7D553
:102290000BE000BFFFF7FCFB001B022802D9032064
:1022A000BDE8F88F28688001F4D40020F8E7012009
:1022B000F6E7000000100240000042428004424263
:1022C00004000020007000404FF0E021042808695D
:1022D00003D020F004000861704740F00400FAE7E2
:1022E000704710B5401EB0F1807F01D3012010BDB2
:1022F0004FF0E02460610F21601700F0ADFD002079
:10230000A06107202061002010BD10B5FFF7E8FF95
:1023100010BD7047704730B590F83C20012A20D09E
:10232000012280F83C20022380F83D3003685C687D
:1023300024F070045C6003685C680D682C435C608A
:1023400003689C6824F080049C6003689C6849686A
:102350000C439C6080F83D20002180F83C1008462A
:1023600030BD022030BD10B5040003D094F83D000C
:1023700010B107E0012010BD002084F83C00204689
:1023800000F00CF8022084F83D00211D206800F0C8
:10239000F1FD012084F83D00002010BD08B51E4A63
:1023A00001681E4891420ED1816941F4006181614A
:1023B0008069002200F40060009001211920FFF7DD
:1023C000E9FB192013E0B1F1804F14D0144A914277
:1023D00020D1C16941F00201C161C069002200F051
:1023E0000200009001211D20FFF7D4FB1D20BDE855
:1023F0000840FFF7C3BBC16941F00101C161C06979
:10240000002200F00100009001211C20FFF7C2FB18
:102410001C20ECE708BD0000002C01400010024029
:10242000000400400168CA6842F00102CA60006806
:10243000016841F0010101600020704770B5044659
:1024400090F83C00012817D0012584F83C50022068
:1024500084F83D002068826822F0770222F47F42EF
:1024600082600868502837D00DDC202859D005DC60
:1024700088B3102841D151E0022070BD302853D0DC
:1024800040283AD13FE060282ED070280BD0B0F51C
:10249000805F03D0B0F5005F2FD110E02068816825
:1024A00021F0070115E0CB68D1E90121206800F097
:1024B000A7FD2168886840F0770088601DE0CB6840
:1024C000D1E90121206800F09BFD2068816841F47A
:1024D0008041816011E01EE0CA684968206800F010
:1024E000A1FD5021206806E0CA684968206800F014
:1024F000AAFD6021206800F08DFD84F83D50002089
:1025000084F83C0070BDCA684968206800F08AFD04
:1025100040212068EFE700212068ECE710212068C7
:10252000E9E720212068E6E730212068E3E77047EB
:1025300070B50446006801694FF00005C94389077A
:1025400015D4C168C943890711D4E91E016101206E
:102550002077206880698007204602D0FFF7E7FFD8
:1025600004E000F098F8204600F096F825772068FF
:102570000169C943490717D4C168C943490713D43E
:102580006FF004010161022020772068806910F457
:10259000407F204602D0FFF7CAFF04E000F07BF83E
:1025A000204600F079F8257720680169C9430907BA
:1025B00016D4C168C943090712D46FF0080101613C
:1025C000042020772068C0698007204602D0FFF7EA
:1025D000AEFF04E000F05FF8204600F05DF82577DC
:1025E00020680169C943C90617D4C168C943C9062F
:1025F00013D46FF010010161082020772068C069B2
:1026000010F4407F204602D0FFF791FF04E000F075
:1026100042F8204600F040F8257720680169C94358
:10262000C90708D1C168C943C90704D1891E01611E
:10263000204600F033F820680169C943090609D42F
:10264000C168C943090605D46FF0800101612046C5
:10265000FFF75FFE20680169C943490609D4C168D4
:10266000C943490605D46FF040010161204600F0DE
:1026700033F820680169C94389060BD4C168C9438E
:10268000890607D46FF0200101612046BDE8704043
:10269000FFF740BE70BD7047704700000B4A0168ED
:1026A000914201D1002106E0B1F1804F08D0084AE3
:1026B000914209D10221074A12781AB101F076BC81
:1026C0000121F8E701F0C6BC70470000002C014072
:1026D00000040040120000207047704770B5026887
:1026E00004461068D168536910F00F0F51D003F001
:1026F000010501F4907635435DD0C20705D0CA05C7
:1027000003D5E26B42F00102E263420705D5DA0726
:1027100003D0E26B42F00202E263820705D5DA07DA
:1027200003D0E26B42F00402E263020705D5DA0748
:1027300003D0E26B42F00802E263E26B002A34D07D
:10274000800604D5880602D5204600F0A4FC206847
:102750004069E16BC0F3801001F00801014320469D
:1027600024D000F08AFC2068416949061AD54169E5
:1027700021F040014161606BA0B11B494163606B76
:10278000FEF732FE002810D0606B416BBDE8704050
:10279000084783060FD58B060DD52046BDE870404F
:1027A00000F079BC2046FFF798FF70BDFFF795FF5A
:1027B0000020E06370BD030606D50B0604D5204655
:1027C000BDE8704000F06ABD4006F3D54806F1D57B
:1027D000D168204621F04001D160202184F83910D1
:1027E00000F04FF970BD00006B30000870B50400B8
:1027F00004D094F83900002510B106E0012070BD26
:1028000084F83850204600F023F8242084F839005A
:102810002068C16821F40051C160204600F086FCA8
:102820002068016921F4904101612068416921F02B
:102830002A0141612068C16841F40051C160E5632B
:10284000202084F8390084F83A00002070BD000090
:1028500030B52F4D036800242E480221032285B095
:10286000AB4222D1836943F48043836180692A4D5E
:1028700000F4804004900802CDE90001039269460B
:102880002846FFF703F82815CDE9000469462846D5
:102890000294FEF7FBFF002202212520FFF77AF9C0
:1028A0002520FFF76BF905B030BD1C4DAB42FAD1C6
:1028B000C36943F40033C361C069194D00F40030AB
:1028C00004902020CDE90001039269462846FEF7D6
:1028D000DDFF4020CDE90004694628460294FEF75A
:1028E000D5FF104C606840F008006060002211467F
:1028F0002620FFF74FF92620FFF740F9606820F007
:10290000E0606060606840F000706060CBE70000ED
:10291000003801400010024000080140004400401F
:10292000001401400000014090F83A30202B22D1E1
:10293000F9B1F2B190F83830012B1CD08162828558
:10294000C2850021C163222280F83A2080F8381025
:102950000168CA6842F48072CA6001684A6942F03C
:1029600001024A610068C16841F02001C160002095
:1029700070470120704702207047000010B50068C2
:102980000C4A0D49904206D1087801F061FE0122FF
:1029900009490A4809E00A4A90420AD1487801F0F8
:1029A00057FE054901220748491CBDE81040FFF7C2
:1029B000BBBF10BD003801400B000020F403002015
:1029C00000440040340400202DE9F843044690F808
:1029D00039001F4616460D46202850D1A5B19EB19C
:1029E00094F8380001284AD0012084F838004FF0CC
:1029F0000008C4F83C80212084F83900FFF748F82B
:102A0000A6848146E68426E00120BDE8F883E08CB8
:102A1000401EE084A0684B46B0F5805F4FF0000296
:102A20004FF080012046009703D000F068FCE8B921
:102A30000DE000F064FCC8B928882168C0F30800E4
:102A40004860206908B16D1C05E0AD1C03E02168F9
:102A500015F8010B4860E08C0028D8D14B460022C5
:102A600040212046009700F04AFC08B10320CCE743
:102A7000202084F8390084F838800020C5E702203F
:102A8000C3E77047FEB52A4828490025016089152B
:102A900001244561C0E90214072606614FF4602154
:102AA0004560C161FEF770F800B1FEE7CDE9005462
:102AB00069461F480296FDF75FFF00B1FEE702205E
:102AC000CDE9004069461A48FDF756FF00B1FEE720
:102AD00003200090019069461548FDF74DFF00B1B5
:102AE000FEE704200090019069461148FDF744FF7D
:102AF00000B1FEE705200090019069460C48FDF703
:102B00003BFF00B1FEE706200090019069460848AF
:102B1000FDF732FF00B1FEE70096694604480196D2
:102B2000FDF72AFF002800D0FEE7FEBD002401408B
:102B3000C00200200E4810B50C4901600C21416014
:102B400000214FF480228160C0E903124FF4A002FB
:102B5000C0E90521C161016241628162C162FEF783
:102B60000BFB002800D0FEE710BD00000064004011
:102B7000F00200202DE9F04F704885B0816941F0E6
:102B800040018161816901F040010491816941F056
:102B900010018161816901F010010491816941F0A6
:102BA00004018161816901F004010491816941F0AE
:102BB00008018161816901F008010491816941F096
:102BC000200181618069002200F0200004907C21B6
:102BD0005B48FEF758FF4FF4F04400222146594865
:102BE000FEF751FF4FF48277002239465648FEF730
:102BF0004AFFDFF858A141F2FB3800224146504617
:102C0000FEF741FFDFF848B140F6010900224946CE
:102C10005846FEF738FF012202214948FEF733FFEC
:102C20007C200125CDE9000503266946039644482A
:102C3000FEF72CFE694643480396CDE90045FEF7B2
:102C400025FE3F20009043480024CDE90104694659
:102C50003C48FEF71BFECDE9007569463A480396ED
:102C6000FEF714FECDE90085694650460396FEF74F
:102C70000DFE4FF47050CDE90004694630480294CF
:102C8000FEF704FE6803CDE900046946504602944D
:102C9000FEF7FCFDCDE90095694658460396FEF720
:102CA000F5FD4FF47040CDE90004694658460294A2
:102CB000FEF7ECFD4FF47070CDE900046946214841
:102CC0000294FEF7E3FD0220CDE90005039069467A
:102CD0001B48FEF7DBFD002211460620FEF75AFFD7
:102CE0000620FEF74BFF002211460720FEF752FF99
:102CF0000720FEF743FF002211460820FEF74AFF97
:102D00000820FEF73BFF002211460920FEF742FF94
:102D10000920FEF733FF002211460A20FEF73AFF92
:102D20000A20FEF72BFF002211461720FEF732FF84
:102D30001720FEF723FF05B0BDE8F08F001002401A
:102D4000001801400010014000080140000C014043
:102D5000001401400000311010B5144886B012492B
:102D6000016047210024C0E9011440F2E731C0E9C5
:102D7000031444618461FFF7F6FA00B1FEE74FF4F3
:102D80008050009069460948FFF758FB00B1FEE704
:102D9000049404A905480594FFF7BDFA002800D063
:102DA000FEE706B010BD0000002C014034030020F7
:102DB00010B5134886B04FF08041016047210024D0
:102DC000C0E9011440F2E731C0E903148461FFF760
:102DD000CAFA00B1FEE74FF48050009069460848F7
:102DE000FFF72CFB00B1FEE7049404A90448059406
:102DF000FFF791FA002800D0FEE706B010BD0000F2
:102E00007403002010B5134886B0114901604721B2
:102E10000024C0E9011440F2E731C0E903148461E1
:102E2000FFF7A1FA00B1FEE74FF480500090694629
:102E30000848FFF703FB00B1FEE7049404A9054826
:102E40000594FFF768FA002800D0FEE706B010BD31
:102E500000040040B40300200907090E002806DA28
:102E600000F00F0000F1E02080F8141D704700F121
:102E7000E02080F80014704710B5FEF70FFEBDE8A3
:102E80001040FFF742BA30B595B0092001210090FB
:102E90004FF48030002504910691CDE9010502240C
:102EA000CDE907404FF4E01009906846FFF78AF833
:102EB00000B1FEE70AA90F2081E831004FF48060DD
:102EC0000D900E9002210AA8FEF776FF00B1FEE7F2
:102ED0004FF4404011900F940FA8FEF7F7FE00B199
:102EE000FEE7FFF713F84FF47A71B0FBF1F0FFF74C
:102EF000F8F90420FFF7E8F905210022881FFEF702
:102F000049FE15B030BD00000D48016841F00101D7
:102F1000016041680B4A1140416001680A4A114052
:102F20000160016821F480210160416821F4FE0103
:102F300041604FF41F0181600449C003086070477D
:102F4000001002400000FFF8FFFFF6FE08ED00E071
:102F50000148FFF7EDBA0000340300200148FFF7F5
:102F6000E7BA0000740300200148FFF7E1BA00004F
:102F7000B4030020F0B502681C4B1D4D1D4E1E4FC2
:102F80001E4C4FF0804C984209D0A04207D06045BB
:102F900005D0A84203D0B04201D0B84204D122F0FB
:102FA000700E4A6842EA0E02984209D0A04207D049
:102FB000604505D0A84203D0B04201D0B84203D149
:102FC00022F44075CA682A4322F080054A692A43E0
:102FD00002608A68C2620A688262984201D0A04296
:102FE00001D10969016301214161F0BD002C01405B
:102FF0000004004000080040000C00400034014084
:1030000010B5846842EA032224F47F440A43224331
:10301000826010BD826822F070020A4342F007010C
:103020008160704710B5036A046A24F001040462E9
:10303000846924F0F00444EA021423F00A020A43EB
:103040008461026210BD10B5036A23F010030362AD
:103050008369046A23F4704343EA023224F0A00334
:1030600043EA01118261016210BD10B5406A00217E
:10307000C185C184FFF731FB10BD0168CA6822F425
:103080009072CA6001684A6922F001024A612021F7
:1030900080F83A10704710B590F83A10222901D004
:1030A000022010BD8168B1F5805F11D0016900294F
:1030B00001681FD0496801F07F03816A4A1C82625F
:1030C0000B70C18D491E0904090CC18518D02BE075
:1030D0000269816A002A0268526805D0D2B20A8069
:1030E000816A491C8162ECE7C2F308020A80816AA6
:1030F000891CF7E74A68816A4B1C83620A70E0E723
:103100000168CA6822F02002CA600168CA6822F415
:103110008072CA6001684A6922F001024A61202176
:1031200080F83A10FFF72AFC002010BD2DE9F0418D
:10313000044600680169E26821F4405111430161CD
:103140002169A0680843616908432168CA6841F29F
:103150000C639A430243CA6020684169A26921F462
:103160004071114341614C492068642532268842F0
:103170003CD1FEF7E1FE00EBC00101EB00106168FD
:103180008900B0FBF1F7FEF7D7FE00EBC00101EBC1
:1031900000106168B0468900B0FBF1F0B0FBF5F0BB
:1031A0006FF01801484307EB800106EB0110B0FBFC
:1031B000F5F000F0F006FEF7BFFE00EBC00101EBFA
:1031C000001061688900B0FBF1F0B0FBF5F006EB90
:1031D0000016FEF7B1FE00EBC00101EB00106168C4
:1031E0008900B0FBF1F7FEF7A7FE3BE0FEF794FE87
:1031F00000EBC00101EB001061688900B0FBF1F742
:10320000FEF78AFE00EBC00101EB00106168B046DA
:103210008900B0FBF1F0B0FBF5F06FF01801484306
:1032200007EB800106EB0110B0FBF5F000F0F006B3
:10323000FEF772FE00EBC00101EB0010616889002F
:10324000B0FBF1F0B0FBF5F006EB0016FEF764FE04
:1032500000EBC00101EB001061688900B0FBF1F7E1
:10326000FEF75AFE00EBC00101EB00106168890017
:10327000B0FBF1F0B0FBF5F06FF01801484307EB3D
:10328000800108EB0110B0FBF5F0216800F00F00A1
:1032900030448860BDE8F0810038014090F8391072
:1032A000212901D0022070478168B1F5805F016A51
:1032B0000BD04A1C0262026809785160C18C491E19
:1032C0000904090CC1840ED017E009880268C1F313
:1032D0000801516001690029016A02D0491C01629C
:1032E000ECE7891CFBE70168CA6822F08002CA602B
:1032F0000068C16841F04001C160002070472DE9BD
:10330000F041984617460E460446069D1DE0681C8F
:103310001BD02DB1FEF7BCFBA0EB0800A84214D9CE
:103320002068C16821F4D071C1602068416921F032
:1033300001014161202084F8390084F83A0000201E
:1033400084F838000320BDE8F0812068006836EA80
:10335000000004D00020B842D9D00020F3E70120BB
:10336000F9E700000148FFF7B9B90000F4030020B5
:103370000148FFF7B3B90000340400200148FDF70D
:10338000E1BD0000F0020020FEE702E008C8121FC5
:1033900008C1002AFAD170477047002001E001C13E
:1033A000121F002AFBD17047F0B5012080F310886E
:1033B00020490870002080F310881F481F4F406B81
:1033C000416939608069786000201D490A223C18F3
:1033D0003D5C267A2B01764203EB06134FF47A7696
:1033E000734393FBF2FCC0F1020606EB460E0EEBB4
:1033F000061601EBC606C6F878C000EB400C0CEBD5
:10340000001C01EBCC0CDCF878C0BCF1000F03DA37
:103410005B4293FBF2F3B367401CC0B225720328F2
:10342000D5D3012080F3108806490020087080F36E
:103430001088F0BD28000020F002002018050020B0
:10344000F80000200D00002070477047704770475B
:10345000F0B5124C0020124B024604F1100504F1A5
:10346000080604F1200700BF03EB001134F810C078
:10347000A1F800C08A700A8155F820C0C1F804C0C4
:1034800036F810C0A1F80AC057F820C0401CC0B2DE
:10349000C1F80CC00428E7D3F0BD000038000020BC
:1034A000C80400207047704770477047F0B51E4B46
:1034B0008DB00ECB8DE80E0000216A4601F58073B9
:1034C00042F82130491C89B20329F7D308A9002307
:1034D000012481E81900009803254001CDE9030388
:1034E000009E40F2FF7118467FEA060732F820601E
:1034F000401C7E40B6B2314080B2A842F6D34801AB
:1035000005900220CDE906030E20CDE90B4003A96A
:103510000648FDF79DFC002803D04D2104A0FFF7CD
:1035200033FF0DB0F0BD000068470008F002002036
:10353000757365725F66696C655C757365725F63F0
:10354000616E2E630000000070B50A4E002500BFBA
:1035500006EBC504E07828B9A078E0706068804781
:10356000E07810B1C0B2401EE0706D1CEDB2022DCB
:10357000EED370BD0805002070470000F0B50C4C7C
:1035800000200C49E51E034614F1040634F810200F
:1035900021F8302001EBC0022F5C9770D37056F8F1
:1035A0002070401CC0B257600228EFD3F0BD00006D
:1035B0002C00002008050020704700001348124925
:1035C000062201630A60026B00219160026BD160E8
:1035D000026B08211161026B43211175026B4121BD
:1035E0005175026B4E219175026B2021D175026BD2
:1035F00049211176026B53215176026B4F2191764E
:10360000006B4B21C176704738050020F002002086
:10361000012080F3108803490020087080F310888F
:1036200070470000280000202DE9F05F012080F3A2
:103630001088FD4C002585F3108880F31088A56064
:1036400085F3108880F31088C4F8A05085F31088A3
:1036500080F310884FF4E17085F31088012181F325
:103660001088A06585F3108881F31088C4F8F000F5
:1036700085F3108881F31088C4F8880185F31088D9
:1036800081F31088E06585F3108881F31088C4F811
:10369000F40085F31088C4F838514FF4FA7BC4F86D
:1036A0008C015846FEF7D6F84FF4C87600F038FF84
:1036B000B042FBD800F03AFFB042F7D800F03CFF30
:1036C000B042F3D8012080F310884FF4FE6000214F
:1036D00081F31088012181F31088A060002181F31B
:1036E0001088012181F31088C4F8A000C4F83801C3
:1036F000002080F310884FF4B46700BF00F010FF83
:10370000B842FBD300F012FFB842F7D300F014FF29
:10371000B842F3D3012080F31088A846284680F3EE
:103720001088012181F31088A56080F3108881F34F
:103730001088C4F8A05085F31088C4F8385100BF31
:1037400000F0EEFEB042FBD800F0F0FEB042F7D839
:1037500000F0F2FEB042F3D8B44D0127AF7087F30A
:1037600010884FF47A70002181F3108887F3108855
:10377000A06581F3108887F31088C4F8F00081F306
:10378000108887F31088C4F8880181F3108887F3C4
:103790001088E06581F3108887F31088C4F8F4007E
:1037A00081F3108887F31088C4F88C0100F0B8FE0C
:1037B0002066002080F3108887F3108800F0B6FEA2
:1037C000C4F8F800002080F3108887F3108800F018
:1037D000B3FEC4F89001002080F31088404685F8BD
:1037E0000380E9782B7807FA01F21A43491CC9B221
:1037F0002A70E9700329F4D3C9B207FA01F1D2B2F1
:10380000114329704FF458688246B94685E0504606
:1038100085F803A0C1B209FA01F029784F460842A1
:1038200035D03220FEF716F8E87820B1012813D001
:1038300002282CD11EE000F073FE216E01F51671F6
:10384000884205DDE87887402878B84328701EE074
:10385000A06D0A38A0651AE000F068FED4F8F810F0
:1038600001F516718842EDDCD4F8F0000A38C4F88E
:10387000F0000CE000F060FED4F8901101F5167134
:103880008842DFDCD4F888010A38C4F8880100F0E7
:1038900047FE4746B84207D3A18B0122A069FEF735
:1038A000F2F8A18C206A1EE000F040FEB8420BD373
:1038B000B4F8B41054F8B00F0122FEF7E4F8A1896F
:1038C0000122A068B03C0FE000F036FEB8420DD3F4
:1038D000B4F84C110122D4F84801FEF7D4F8B4F83A
:1038E0005411D4F850010122FEF7CDF8E878401CBD
:1038F000C0B2E87003288DD300F012FE4746B842EC
:103900000BD300F013FEB84207D300F015FEB84207
:1039100003D3287820F008002870287800287FF446
:1039200076AF5846FDF796FF012080F3108800F02F
:10393000F7FD6066002080F31088012080F3108876
:1039400000F0F4FDC4F8FC00002080F31088012092
:1039500080F3108800F0F0FDC4F89401002080F39B
:103960001088D046504685F803A04F46C0B207FAEB
:1039700000F16A78401C1143C0B26970E8700328F6
:10398000F4D3C1B207FA01F06978084387E04046F2
:1039900085F80380C1B207FA01F06978084236D091
:1039A0003220FDF757FFE87820B1012814D0022813
:1039B0002DD11FE000F0B4FD616EA1F516718842B3
:1039C00006DCE97807FA01F06978814369701EE046
:1039D000E06D1E38E0651AE000F0A8FDD4F8FC1098
:1039E000A1F516718842ECDDD4F8F4001438C4F85F
:1039F000F4000CE000F0A0FDD4F89411A1F51671CC
:103A00008842DEDDD4F88C011438C4F88C0100F053
:103A100087FDB0420CD8A18B0122A069FEF733F8D4
:103A2000A18C206A23E00000F80000201000002094
:103A300000F07CFDB0420BD8B4F8B41054F8B00FCD
:103A40000122FEF720F8A1890122A068B03C0FE016
:103A500000F072FDB0420DD8B4F84C110122D4F838
:103A60004801FEF710F8B4F85411D4F850010122BF
:103A7000FEF709F8E878401CC0B2E870032889D343
:103A800000F04EFDB0420BD800F050FDB04207D818
:103A900000F052FDB04203D8687820F0080068704A
:103AA000687800287FF473AF00EB400101EB001150
:103AB00004EBC101401C8A6DC0B218328A65CA6D20
:103AC0001832CA650328EFD385F80280BDE8F09F5D
:103AD0000B4A05280CD2DFE800F00307100E0C009B
:103AE00010680860506802E090680860D06848601C
:103AF0007047507C02E0907C00E0107C08707047BA
:103B000018050020012080F3108803480021007868
:103B100081F3108870470000280000201CB5FDF7D5
:103B2000C5FFFFF7B0F9FFF725F8FE48416941F0FE
:103B3000010141614069002200F001000090042170
:103B40000B20FEF727F80B20FEF718F8FEF79AFF78
:103B5000F64DF548002428604FF41650C5E90104DD
:103B60000C26EC60C5E90446AC612846EC61FEF722
:103B70003DFE00B1FEE7FFF7EFF8FFF719F9FFF799
:103B800041F9EA48EA49403001604FF4E131C0E9C7
:103B90000114C460C0E904468461C461FEF726FED6
:103BA00000B1FEE7FEF7C6FF00F0CCFC00F020FD00
:103BB00000F09CFD00F0B8FD00F0F6FB00F07CFC8E
:103BC00000F05AFCDFF86CA3DFF86C93AB46A0461C
:103BD000CAF80C808AF80480CAF814809AF80500A4
:103BE0005446E0B3012080F31088D449404680F366
:103BF0001088012282F31088C1F8088080F31088B1
:103C000082F31088C1F8A08088F31088C1F8388149
:103C1000A246C84C0126CA4DE41D00BF00F004FCBA
:103C20004FF400514846FDF725FFD8B3002101208D
:103C300080F3108860780844A070002080F310881A
:103C4000012080F310882F78002080F31088012055
:103C500080F31088FFF756FF0090002000E022E07C
:103C600080F3108800F0A0FB009807436FD001207C
:103C700080F31088474685F8008087F3108880F32A
:103C80001088FFF7C5FC87F31088DAF80C00642170
:103C9000401C90FBF1F201FB12005746CAF80C00E1
:103CA00040B110E004E0FFF7BFFC01206071AFE716
:103CB0000121BCE702214846FDF7E1FE4FF48051A7
:103CC0004846FDF7DCFE00F0F3FCA078F0B39D4819
:103CD0000078A0BBCDF80080012080F310886946F1
:103CE0000020CDF80480FFF7F3FE88F31088012050
:103CF00080F310889DF80200A87188F310880120D5
:103D000080F310889DF80100687188F31088012005
:103D100080F310889DF80000287188F31088012036
:103D200080F310889DF80400E87188F31088012062
:103D300080F310889DF80500687288F310880120D0
:103D400080F31088A87901017C4801E020E078E048
:103D50008160002181F31088012181F31088697945
:103D60000901C0F8A010002181F31088012181F31E
:103D7000108829790901C0F83811002080F31088D3
:103D8000012080F31088E879E070002080F310882B
:103D900084F800804FF480516B48FDF76BFE10B93A
:103DA0002078401C20704FF400516748FDF762FEF8
:103DB00010B92078801C20704FF480416248FDF7D4
:103DC00059FE10B92078001D20704FF400415E4864
:103DD000FDF750FE10B920780830207040215B4874
:103DE000FDF748FE10B920780A302070802157482E
:103DF000FDF740FE10B92078143020704FF4807128
:103E00005248FDF737FE10B92078283020704FF463
:103E100000714E48FDF72EFE10B92078503020700A
:103E2000687A217888420CD1424A012010323871D8
:103E3000917080F310886078D070002080F3108833
:103E400002E09AF80400F0B100224FF4807140487B
:103E5000FDF719FEDAF81410504629B1DBF80020FE
:103E60001268D243120607D4324ADBF8003010320F
:103E7000525C5A60491C416104290FD1C0F814807A
:103E80008AF804800AE0DBF800000068C0430006FE
:103E900004D4012211022E48FDF7F5FDA078B8B92F
:103EA000404684F80380012181F31088234980F380
:103EB0001088012282F31088C1F8088080F31088EE
:103EC00082F31088C1F8A08088F31088C1F8388187
:103ED000E078204F40F3000204213846521CFDF7E1
:103EE000D2FDE078082140F340023846521CFDF72D
:103EF000CAFDE078791540F380024F464846521CCF
:103F0000FDF7C1FDE078802140F3C0023846521C25
:103F1000FDF7B9FDE078402140F300123846521C0D
:103F20001AE000000010024000380140F4030020B5
:103F30000044004010000020000C0140F800002068
:103F4000DC0000200D0000200014014000100140A2
:103F50000008014000180140FDF795FDE0782021A0
:103F600040F340123846521CFDF78DFDE0781021D9
:103F700040F380123846521CFDF785FDE078082199
:103F800040F3C0123846521CFDF77DFDE078C007B3
:103F900000D000260122691C0348FEF7C5FC002E54
:103FA0007FF43CAE14E60000F40300202DE9F0415C
:103FB000054601EB410000EB01112348234E00EBC5
:103FC000C104234F207BE0B1A18B0122A069FDF742
:103FD0005AFDA18C0122206AFDF755FD00202073B7
:103FE000307820B12968A06DC862A06DE86038788B
:103FF000002804D02968E06DC862E06DE860BDE883
:10400000F0813078632660B1A18B0022A069FDF7B2
:104010003AFDA18C0122206AFDF735FD2868C662B1
:10402000EE60387860B1A18B0122A069FDF72BFD0D
:10403000A18C0022206AFDF726FD2868C662EE608A
:10404000207B401C2073DAE7F800002010000020DD
:10405000110000202DE9F84F8246894601EB41020C
:10406000544802EB091100EBC1054FF00008287D10
:104070000090D5E9146140F2E7340F4642464346CA
:104080003046FCF713FA02D24FF0010808E0002294
:10409000134630463946FCF7F1F90CD287F0004759
:1040A000DFF814B11BF8090080B1012839D00020D5
:1040B0000BF8090076E0A98B0122A869FDF7E3FC63
:1040C000A98C0122286AFDF7DEFC6BE000984045D0
:1040D0000CD085F81480A98B0122A869FDF7D3FCC8
:1040E000A98C0122286AFDF7CEFC18E0A98BA869EB
:1040F000B8F1000F06D00022FDF7C5FCA98C012203
:10410000286A05E00122FDF7BEFCA98C0022286A7E
:10411000FDF7B9FC1BF80910491C0BF809106324C2
:1041200040E0A98B0122A869FDF7ADFCA98C012212
:10413000286AFDF7A8FC00200BF809005FEA0800D8
:10414000DFF8788013D0AD6D2846FCF75FF90022C8
:104150004346FCF72BF832463B46FCF7C8F8FCF721
:1041600073F90446A5F1C800A04211D811E0EC6D26
:104170002046FCF74BF900224346FCF717F832467D
:104180003B46FCF7B4F8FCF75FF9C83C844200D822
:104190000446B4F5803F02D34FF6FF7402E0602C72
:1041A00000D26024DAF80000C462CAF80C40BDE80E
:1041B000F88F0000F800002008000020000059409F
:1041C00010B504460B480078FCF731F90A4A0B4B4E
:1041D000FCF793F804EB440202EB0413084A02EBE9
:1041E000C302C2E90C010020C2E90E00C2E91000BE
:1041F00010BD0000160000207B14AE47E17A843F1A
:10420000F80000202DE9F05F624901EB40010E89C2
:1042100000EB400101EB00115F4840F21F3200EB60
:10422000C1044FF0000B6660A068A062851B05F218
:104230008F11914209D2C4F894B0C4F82CB0C4F8DC
:1042400048B0002584F870B00BE0012184F87010AC
:10425000D4F89410491CC4F89410012901D1C4E980
:104260002360E06A4719E762A06CA564281AFCF78E
:10427000CDF8D4E91023FCF740F881468A46384649
:10428000FCF7C4F8D4E90E23FCF737F80746884654
:104290002846FCF7BBF8D4E90C23FCF72EF83A4685
:1042A0004346FBF783FF4A465346FBF77FFF012255
:1042B00082F31088C4E91401002080F3108894F878
:1042C000700010B1E06F401CE06740F21F30DFF873
:1042D000CC8005F28F156FF00B07854250D2D4F8D1
:1042E0008C00801BFCF792F821F00041002243462D
:1042F000FCF703F83A46FCF772F84FF06632284BA9
:10430000FBF7FBFF05460E46E06F4FF4FA614843AA
:10431000FCF77CF82A463346FCF7C8F805D2207D26
:1043200001282FD0E06D401EE065E56F002D25DDF2
:104330006168D4F88C00401AFCF768F821F000415D
:1043400000224346FBF7D9FF3A46FCF748F84FF006
:104350003332144BFBF7D1FF06464FF4FA600F4699
:104360006843FCF753F832463B46FCF787F805D222
:10437000207D01280AD0E06D401CE065C4F87CB0C7
:10438000BDE8F09FA06D401EA065CEE7A06D401C6B
:10439000A065F3E7CE000020F800002080843E41B5
:1043A0006666F63F3333E33F70B51D4D4FF48061D1
:1043B0002846FDF75FFB1B4C0028A07902D040F097
:1043C000010001E000F00E00A0714FF400612846EA
:1043D000FDF750FB0028A07902D040F0020001E078
:1043E00000F00D00A0714FF480512846FDF742FB0C
:1043F0000028A07902D040F0040001E000F00B009A
:10440000A0714FF400512846FDF734FB0028A07935
:1044100002D040F0080001E000F00700A07170BD7C
:10442000001801401000002070B5124E002500BF9A
:1044300006EB0514E06860B1FDF72AFB2168401A1D
:10444000E168884211D3FDF723FB20600020E06083
:1044500009E0FDF71DFB2168411AA068814204D3E1
:10446000FDF716FB2060606880476D1C15F0FF05A6
:10447000DED070BD6800002070B5094D002400BF7B
:10448000FDF706FB05EB0411641C086014F0FF0443
:10449000F6D0FFF773F8BDE87040FEF7D9BF000013
:1044A000680000200348016841F002010160FFF745
:1044B0004BB800001464004000B58BB0FFF77EF8E5
:1044C00015491448486301210E20CDE90810002049
:1044D0008A03CDE90020CDE902200490CDE9050151
:1044E000079169460C48FCF7B3FC0120FEF7DEFF9C
:1044F0000A48016841F04001016000210648FCF7CC
:1045000005FF04480BB020213C385DF804EBFBF7B5
:1045100042BE000054050020F0020020006400406C
:104520000148008970470000CE0000200148408902
:1045300070470000CE0000200148808970470000CD
:10454000CE00002070B5244C012204212046FDF746
:104550009AFA012208212046FDF795FA1F4D012203
:1045600051022846FDF78FFA012280212846FDF7E7
:104570008AFA012240212846FDF785FA01222021EE
:104580002846FDF780FA012210212846FDF77BFA24
:10459000012208212846FDF776FA00220221204652
:1045A000FDF771FA012240212046FDF76CFA012245
:1045B000D1020B48FDF767FA012211020948FDF705
:1045C00062FA0948FCF774F9BDE8704023220749F4
:1045D0000548FCF7B7BB000000180140000C014083
:1045E0000014014000080140C002002088000020A3
:1045F00010B54FF4E4711148FBF7CDFD0F48104999
:1046000001228161042181830E4901620E49828465
:10461000C0F8B010A0F8B4200C4A8B14C0F8B82031
:10462000A0F8BC30C0F848118915A0F84C11C90099
:10463000C0F85021A0F8541110BD0000F80000206F
:104640000008014000140140000C0140001001402E
:1046500015494870887D10B94878FF280AD08A7DAE
:104660000020012A09D08A7D082A4A7816D3EE2A2A
:1046700008D109E0887D401C04E04A78C22AF9D0BC
:10468000FF2A00D08875704701220A70887582F36E
:10469000108806498A7080F3108870478B7D024825
:1046A000801C1A54E6E70000DC0000200B0000200C
:1046B0001CB5002000900190FFF738FFFF218DF816
:1046C0000010C0218DF80110010A8DF802108DF83C
:1046D0000300EE208DF804004FF47A73052269463A
:1046E0000148FEF771F91CBD340400200B4810B5D9
:1046F000016840F2E734CC62C460FDF793FE0848DD
:104700000168CC62C460FDF78DFE06480168CC628A
:10471000C460BDE81040FDF785BE000034030020F2
:1047200074030020B403002010B501220549064897
:10473000FEF7FAF803490122BDE81040491C03487E
:10474000FEF7F2B80B000020F40300203404002030
:104750000000000000000000010203040607080931
:10476000000000000102030400010000010100003C
:1047700002010000944700080000002078000000BB
:104780008A3300080C480008780000200009000067
:104790009A3300080000000000A24A040000000054
:1047A0000000000000000000000000000000000009
:1047B00000000000FFC100000000000000320A00FD
:1047C0000004000079350008B93500080001010136
:1047D00002010002190019001900E8034D34000815
:1047E000A9340008A5340008493400084F340008F3
:1047F000AB340008A73400084B3400080000000068
:0C480000A54400080A000000E8030000C6
:0400000508000131BD
:00000001FF
